:020000040800F2
:1000000000000120CD1D0008951700089D1700086D
:100010009F170008A1170008A317000800000000A0
:10002000000000000000000000000000D1500008A7
:10003000A51700080000000071510008B551000824
:10004000151E0008151E0008151E0008151E0008C4
:10005000151E0008151E0008A7170008B117000894
:10006000BB170008C5170008151E0008151E00085C
:10007000151E0008151E0008151E0008151E000894
:10008000D1170008E1170008151E0008151E00080A
:10009000151E0008151E0008151E0008151E000874
:1000A000151E0008151E0008151E0008151E000864
:1000B000F117000801180008151E0008151E000899
:1000C000151E0008151E0008151E0008151E000844
:1000D000151E0008151E000811180008151E00083E
:1000E000151E0008151E0008151E0008151E000824
:1000F000151E0008151E0008151E0008151E000814
:10010000151E0008151E0008151E0008151E000803
:10011000151E0008151E00082118000831180008D7
:10012000151E0008151E0008151E0008151E0008E3
:1001300000000000000000000000000000000000BF
:1001400000000000000000000000000000000000AF
:10015000000000000000000000000000000000009F
:10016000000000000000000000000000000000008F
:10017000000000000000000000000000000000007F
:10018000000000000000000000000000000000006F
:10019000000000000000000000000000000000005F
:1001A000000000000000000000000000000000004F
:1001B000000000000000000000000000000000003F
:1001C000000000000000000000000000000000002F
:1001D000000000000000000000000000000000001F
:0401E0005FF8E0F1F3
:1001F00010B5054C237833B9044B13B10448AFF361
:1002000000800123237010BDE009002000000000E1
:10021000F4E7000808B5034B1BB103490348AFF3EB
:10022000008008BD00000000E4090020F4E7000899
:1002300081F0004102E000BF83F0004330B54FEA97
:1002400041044FEA430594EA050F08BF90EA020F04
:100250001FBF54EA000C55EA020C7FEA645C7FEA97
:10026000655C00F0E2804FEA5454D4EB5555B8BFBA
:100270006D420CDD2C4480EA020281EA030382EA2B
:10028000000083EA010180EA020281EA0303362DBD
:1002900088BF30BD11F0004F4FEA01314FF4801C90
:1002A0004CEA113102D0404261EB410113F0004FA2
:1002B0004FEA03334CEA133302D0524263EB430359
:1002C00094EA050F00F0A780A4F10104D5F1200EF7
:1002D0000DDB02FA0EFC22FA05F2801841F1000152
:1002E00003FA0EF2801843FA05F359410EE0A5F126
:1002F00020050EF1200E012A03FA0EFC28BF4CF057
:10030000020C43FA05F3C01851EBE37101F000450C
:1003100007D54FF0000EDCF1000C7EEB00006EEB19
:100320000101B1F5801F1BD3B1F5001F0CD34908A3
:100330005FEA30004FEA3C0C04F101044FEA4452FA
:1003400012F5800F80F09A80BCF1004F08BF5FEA81
:10035000500C50F1000041EB045141EA050130BD61
:100360005FEA4C0C404141EB0101013C28BFB1F573
:10037000801FE9D291F0000F04BF01460020B1FABE
:1003800081F308BF2033A3F10B03B3F120020CDA91
:100390000C3208DD02F1140CC2F10C0201FA0CF06F
:1003A00021FA02F10CE002F11402D8BFC2F1200CD4
:1003B00001FA02F120FA0CFCDCBF41EA0C0190408A
:1003C000E41AA2BF01EB0451294330BD6FEA0404D3
:1003D0001F3C1CDA0C340EDC04F11404C4F12002BE
:1003E00020FA04F001FA02F340EA030021FA04F3D0
:1003F00045EA030130BDC4F10C04C4F1200220FA27
:1004000002F001FA04F340EA0300294630BD21FA64
:1004100004F0294630BD94F0000F83F4801306BF2A
:1004200081F480110134013D4EE77FEA645C18BF1E
:100430007FEA655C29D094EA050F08BF90EA020FB5
:1004400005D054EA000C04BF1946104630BD91EAAD
:10045000030F1EBF0021002030BD5FEA545C05D1B0
:100460004000494128BF41F0004130BD14F58004EF
:100470003CBF01F5801130BD01F0004545F0FE4163
:1004800041F470014FF0000030BD7FEA645C1ABF98
:10049000194610467FEA655C1CBF0B46024650EACF
:1004A000013406BF52EA033591EA030F41F40021FB
:1004B00030BD00BF90F0000F04BF0021704730B581
:1004C0004FF4806404F132044FF000054FF0000156
:1004D00050E700BF90F0000F04BF0021704730B517
:1004E0004FF4806404F1320410F0004548BF4042EC
:1004F0004FF000013EE700BF42004FEAE2014FEA41
:1005000031014FEA02701FBF12F07F4393F07F4F1B
:1005100081F06051704732F07F4208BF704793F01E
:100520007F4F04BF41F40021704730B54FF4607431
:1005300001F0004521F000411CE700BF50EA010234
:1005400008BF704730B54FF000050AE050EA0102DD
:1005500008BF704730B511F0004502D5404261EB4D
:1005600041014FF4806404F132045FEA915C3FF48E
:10057000D8AE4FF003025FEADC0C18BF03325FEA2B
:10058000DC0C18BF033202EBDC02C2F1200300FADC
:1005900003FC20FA02F001FA03FE40EA0E0021FA01
:1005A00002F11444BDE600BF844641EA000313F0A3
:1005B000030349D1403A23D30B6803604B6843607F
:1005C0008B688360CB68C3600B6903614B694361CF
:1005D0008B698361CB69C3610B6A03624B6A4362B7
:1005E0008B6A8362CB6AC3620B6B03634B6B43639F
:1005F0008B6B8363CB6BC36340304031403ADBD2BB
:1006000030320BD30B6803604B6843608B688360A8
:10061000CB68C36010301031103AF3D20C3205D3DE
:1006200051F8043B40F8043B043AF9D2043208D0B4
:10063000D2071CBF11F8013B00F8013B01D30B8826
:1006400003806046704700BF082A13D38B07B1D0E0
:1006500010F00303AED0C3F10403D21ADB071CBFB2
:1006600011F8013B00F8013BA4D331F8023B20F81C
:10067000023B9FE7043AD9D3013A11F8013B00F855
:10068000013BF9D20B7803704B7843708B78837001
:100690006046704770B54FF0FF0C4CF4E06C1CEAFC
:1006A00011541DBF1CEA135594EA0C0F95EA0C0F68
:1006B00000F0DEF82C4481EA030621EA4C5123EADB
:1006C0004C5350EA013518BF52EA033541F480110A
:1006D00043F4801338D0A0FB02CE4FF00005E1FBBD
:1006E00002E506F00042E0FB03E54FF00006E1FB07
:1006F00003569CF0000F18BF4EF0010EA4F1FF044A
:10070000B6F5007F64F5407404D25FEA4E0E6D4189
:1007100046EB060642EAC62141EA55514FEAC5209A
:1007200040EA5E504FEACE2EB4F1FD0C88BFBCF516
:10073000E06F1ED8BEF1004F08BF5FEA500E50F1C7
:10074000000041EB045170BD06F0004646EA01018D
:1007500040EA020081EA0301B4EB5C04C2BFD4EBBF
:100760000C0541EA045170BD41F480114FF0000EB8
:10077000013C00F3AB8014F1360FDEBF002001F026
:10078000004170BDC4F10004203C35DA0C341BDCA0
:1007900004F11404C4F1200500FA05F320FA04F072
:1007A00001FA05F240EA020001F0004221F00041A6
:1007B00010EBD37021FA04F642EB06015EEA430E19
:1007C00008BF20EAD37070BDC4F10C04C4F1200549
:1007D00000FA04F320FA05F001FA04F240EA0200FC
:1007E00001F0004110EBD37041F100015EEA430ECD
:1007F00008BF20EAD37070BDC4F1200500FA05F2ED
:100800004EEA020E20FA04F301FA05F243EA02036B
:1008100021FA04F001F0004121FA04F220EA02007A
:1008200000EBD3705EEA430E08BF20EAD37070BDC0
:1008300094F0000F0FD101F00046400041EB0101A0
:1008400011F4801F08BF013CF7D041EA060195F082
:10085000000F18BF704703F00046520043EB03033C
:1008600013F4801F08BF013DF7D043EA0603704729
:1008700094EA0C0F0CEA135518BF95EA0C0F0CD034
:1008800050EA410618BF52EA4306D1D181EA03017A
:1008900001F000414FF0000070BD50EA410606BF74
:1008A0001046194652EA430619D094EA0C0F02D1B9
:1008B00050EA013613D195EA0C0F05D152EA0336FE
:1008C0001CBF104619460AD181EA030101F000411C
:1008D00041F0FE4141F470014FF0000070BD41F065
:1008E000FE4141F4780170BD70B54FF0FF0C4CF43F
:1008F000E06C1CEA11541DBF1CEA135594EA0C0F5E
:1009000095EA0C0F00F0A7F8A4EB050481EA030EAA
:1009100052EA03354FEA013100F088804FEA033391
:100920004FF0805545EA131343EA12634FEA02225F
:1009300045EA111545EA10654FEA00260EF0004120
:100940009D4208BF964244F1FD0404F5407402D272
:100950005B084FEA3202B61A65EB03055B084FEA03
:1009600032024FF480104FF4002CB6EB020E75EB00
:10097000030E22BFB61A754640EA0C005B084FEA28
:100980003202B6EB020E75EB030E22BFB61A7546A5
:1009900040EA5C005B084FEA3202B6EB020E75EBF0
:1009A000030E22BFB61A754640EA9C005B084FEA68
:1009B0003202B6EB020E75EB030E22BFB61A754675
:1009C00040EADC0055EA060E18D04FEA051545EA64
:1009D00016754FEA06164FEAC30343EA52734FEA0D
:1009E000C2025FEA1C1CC0D111F4801F0BD141EA86
:1009F00000014FF000004FF0004CB6E711F4801FEB
:100A000004BF01430020B4F1FD0C88BFBCF5E06FCA
:100A10003FF6AFAEB5EB030C04BFB6EB020C5FEADA
:100A2000500C50F1000041EB045170BD0EF0004E2F
:100A30004EEA113114EB5C04C2BFD4EB0C0541EA61
:100A4000045170BD41F480114FF0000E013C90E65E
:100A500045EA060E8DE60CEA135594EA0C0F08BF22
:100A600095EA0C0F3FF43BAF94EA0C0F0AD150EA21
:100A700001347FF434AF95EA0C0F7FF425AF1046B4
:100A800019462CE795EA0C0F06D152EA03353FF4DC
:100A9000FDAE1046194622E750EA410618BF52EA59
:100AA00043067FF4C5AE50EA41047FF40DAF52EA2D
:100AB00043057FF4EBAE12E74FF0FF3C06E000BFCA
:100AC0004FF0010C02E000BF4FF0010C4DF804CDD7
:100AD0004FEA410C7FEA6C5C4FEA430C18BF7FEA97
:100AE0006C5C1BD001B050EA410C0CBF52EA430CC5
:100AF00091EA030F02BF90EA020F0020704710F145
:100B0000000F91EA030F58BF994208BF90422CBFD3
:100B1000D8176FEAE37040F0010070474FEA410CCC
:100B20007FEA6C5C02D150EA013C07D14FEA430CEA
:100B30007FEA6C5CD6D152EA033CD3D05DF8040B5B
:100B4000704700BF8446104662468C46194663468D
:100B500000E000BF01B5FFF7B7FF002848BF10F164
:100B6000000F01BD4DF808EDFFF7F4FF0CBF0120A9
:100B700000205DF808FB00BF4DF808EDFFF7EAFF25
:100B800034BF012000205DF808FB00BF4DF808EDE0
:100B9000FFF7E0FF94BF012000205DF808FB00BFD5
:100BA0004DF808EDFFF7CEFF94BF012000205DF85F
:100BB00008FB00BF4DF808EDFFF7C4FF34BF01206C
:100BC00000205DF808FB00BF4FEA410C7FEA6C5C37
:100BD00002D150EA013C0AD14FEA430C7FEA6C5C37
:100BE00002D152EA033C02D14FF0000070474FF0AF
:100BF000010070474FEA410212F5001215D211D5DB
:100C00006FF47873B3EB625212D94FEAC12343F009
:100C1000004343EA505311F0004F23FA02F018BF8B
:100C2000404270474FF00000704750EA013005D154
:100C300011F0004008BF6FF0004070474FF0000017
:100C4000704700BF53B94AB9002908BF00281CBF2C
:100C50004FF0FF314FF0FF3000F076B9ADF1080CE6
:100C60006DE904CE00F006F8DDF804E0DDE90223CA
:100C700004B070472DE9F047089E0D4604468846AB
:100C8000002B4DD18A42944668D9B2FA82F252B111
:100C900001FA02F3C2F1200120FA01F10CFA02FC80
:100CA00041EA030894404FEA1C41B8FBF1F71FFAF0
:100CB0008CFE01FB178807FB0EF0230C43EA084368
:100CC00098420AD91CEB030307F1FF3580F01E811F
:100CD000984240F21B81023F63441B1AB3FBF1F0C0
:100CE00001FB103300FB0EFEA4B244EA0344A64508
:100CF0000AD91CEB040400F1FF3380F00981A645FA
:100D000040F20681644402380021A4EB0E0440EA5C
:100D100007401EB10023D440C6E90043BDE8F08778
:100D20008B4208D9002E00F0EE800021C6E90005B4
:100D30000846BDE8F087B3FA83F100294AD1AB42F7
:100D400002D3824200F2FC80841A65EB0303012087
:100D50009846002EE2D0C6E90048DFE702B9FFDE80
:100D6000B2FA82F2002A40F09180A1EB0C0001213E
:100D70004FEA1C471FFA8CFEB0FBF7F307FB13008A
:100D8000250C45EA00450EFB03F0A84208D91CEBF0
:100D9000050503F1FF3802D2A84200F2CE80434697
:100DA0002D1AB5FBF7F007FB10550EFB00FEA4B2A1
:100DB00044EA0544A64508D91CEB040400F1FF35BC
:100DC00002D2A64500F2B6802846A4EB0E0440EA03
:100DD00003409EE7C1F120078B4022FA07FC4CEA52
:100DE000030C25FA07FA4FEA1C49BAFBF9F820FA76
:100DF00007F309FB18AA8D401FFA8CFE1D4300FA69
:100E000001F308FB0EF02C0C44EA0A44A04202FA5B
:100E100001F20BD91CEB040408F1FF3A80F0888042
:100E2000A04240F28580A8F102086444241AB4FB71
:100E3000F9F009FB104400FB0EFEADB245EA044494
:100E4000A64508D91CEB040400F1FF356CD2A64579
:100E50006AD90238644440EA0840A0FB0295A4EB3A
:100E60000E04AC42C846AE4656D353D0002E69D0CD
:100E7000B3EB080264EB0E0422FA01F304FA07F75D
:100E80001F43CC40C6E90074002147E70CFA02FC7E
:100E9000C2F1200125FA01F34FEA1C4720FA01F1C3
:100EA00095400D43B3FBF7F107FB11331FFA8CFE9E
:100EB000280C40EA034001FB0EF3834204FA02F4DB
:100EC00008D91CEB000001F1FF382FD283422DD945
:100ED00002396044C01AB0FBF7F307FB1300ADB250
:100EE00045EA004503FB0EF0A84208D91CEB0505B6
:100EF00003F1FF3816D2A84214D9023B6544281AE0
:100F000043EA014138E73146304607E72F46E4E639
:100F10001846F9E64B45A9D2B9EB020865EB0C0E71
:100F20000138A3E74346EAE7284694E74146D1E77C
:100F3000D0467BE76444023847E7023B65442FE72D
:100F4000084606E73146E9E6704700BF00B583B0C2
:100F50000E4B5A6942F001025A615B6903F00103CA
:100F60000193019B00220521102000F097FF102023
:100F700000F0DAFF00220521112000F08FFF112080
:100F800000F0D2FF03B05DF804FB00BF0010024088
:100F900008B54FF47A7004F006F8024B9B68012004
:100FA0009847F6E71800002030B5FFB00023009303
:100FB00050E001A805F026FB364C204605F0C0FDA8
:100FC000354805F0BDFD354D01A9284605F056FD13
:100FD000204605F0B5FD01A805F084FB204605F08C
:100FE000AFFD2F4805F0ACFD01A9284605F046FDF0
:100FF000204605F0A5FD33E000230A226946294872
:10100000006804F08AFB012807D0274805F098FD06
:10101000009B03F57A73009326E00099234805F0BE
:101020002DFDF5E700231A4621492248006804F007
:1010300074FB012803D0204805F082FD18E01F4909
:101040001F4805F01BFD13E01B4805F079FD142037
:1010500003F0A9FF1B4C636898472378012BA8D0A5
:10106000184B1B78022BC7D0164B1B78032BD9D0FB
:10107000144B1B78042BEAD100231A4612490D4861
:10108000006804F04AFB0128DED110490C4805F045
:10109000F5FCDCE78CE80008B0E80008ECE80008A4
:1010A000F0E800080C0A002040E9000820E90008E8
:1010B00060E90008100A0020A0E9000870E90008B3
:1010C00080E9000810000020C4E90008D4E9000805
:1010D00000B583B00023019303E00199074805F0B0
:1010E000CDFC4FF47A7201A9054B186804F0D9FBC6
:1010F0000128F2D0034805F023FDF2E7E4E90008F7
:101100000C0A002004EA000800B585B00023009313
:101110000193029303934FF0FF326946054B186821
:1011200004F0BFFB0128F6D16946034805F0A6FC90
:10113000F1E700BF100A002024EA0008014B00225A
:101140001A607047600A0020014B1868704700BFA2
:10115000600A002010B594B000220421012004F0A0
:10116000B8FA324B1860002857D0314805F0E8FC37
:1011700000221021022004F0ACFA2E4B1860002847
:101180004FD02D4805F0DCFC2C4C0DF13C0CA64654
:10119000BEE80F00ACE80F00DEF80030CCF80030FD
:1011A00000210FA803F0E5FE254B18600DF1280C77
:1011B00004F1140EBEE80F00ACE80F00DEF80030BA
:1011C000CCF8003000210AA803F0D3FE1D4B1860B4
:1011D0000DF1140C04F1280EBEE80F00ACE80F006E
:1011E000DEF80030CCF80030002105A803F0C1FE85
:1011F000154B1860EE4604F13C0CBCE80F00AEE85D
:101200000F00DCF80030CEF800300021684603F013
:10121000B0FE0E4B186014B010BD0D4805F090FCE8
:10122000A6E70C4805F08CFCAEE700BF0C0A0020D6
:1012300058EA0008100A002080EA000810E80008B8
:10124000000A0020FC090020040A0020080A0020EF
:1012500044EA00086CEA000830B587B00023029326
:10126000039304930593174B1B680BB107B030BD74
:101270000121144B1960144B5A6942F480725A616F
:101280005B6903F480730193019B0291022503952E
:101290000324059402A90D4801F07AF94FF68073F2
:1012A00002930395059402A9094801F071F94CF2E3
:1012B000B37302930395059402A9064801F068F9F7
:1012C000D4E700BF140A002000100240001C0140B7
:1012D000001801400014014000B589B000220192BD
:1012E00002920392049205920692079217484FF0D9
:1012F0002043036003F5827343608260C260026131
:10130000102343618261C261026242624FF48051E4
:101310008162C262026342638263022101910F21F2
:1013200002910521039105931123069301A901F070
:10133000C5FF38B9064AD36943F48063D36109B065
:101340005DF804FB00F044F9F4E700BF180A002040
:101350000000014008B5FFF77FFF08BD2DE9F04F01
:101360008DB00024089409940A940B94834B9A69D5
:1013700042F040029A619A6902F040020192019A99
:101380009A6942F010029A619A6902F01002029280
:10139000029A9A6942F080029A619A6902F0800288
:1013A0000392039A9A6942F004029A619A6902F0E0
:1013B00004020492049A9A6942F008029A619A69B6
:1013C00002F008020592059A9A6942F480729A61C5
:1013D0009A6902F480720692069A9A6942F0200293
:1013E0009A619B6903F020030793079B644D224693
:1013F0007021284601F0B8FADFF8888122461E21C4
:10140000404601F0B1FADFF880B122460721584684
:1014100001F0AAFA01224FF4C051404601F0A4FAAB
:101420005A4E22464AF20441304601F09DFA01220A
:101430004FF4B041304601F097FA0F230893544B14
:1014400009930A9408A9284601F0A2F8702308938A
:101450004FF00109CDF824900A9402270B9708A9B0
:10146000284601F095F84FF6F8730893032509957F
:1014700008A9584601F08CF81E230893CDF8249053
:101480000A940B9708A9404601F082F84EF2E073E7
:101490000893099508A9404601F07AF84FF0070A29
:1014A000CDF820A0CDF824900A940B9708A95846AF
:1014B00001F06EF849F6F3030893099508A9354839
:1014C00001F066F84FF6FF730893099508A93248B2
:1014D00001F05EF84FF4C05BCDF820B01123099302
:1014E0000A940B9708A9404601F052F840F2FB33EA
:1014F0000893099508A9304601F04AF843F64C03D1
:101500000893099508A9254801F042F84EF20443D2
:101510000893CDF824900A940B9708A9304601F05F
:1015200037F8CDF820B0112309930A940B9508A938
:10153000304601F02DF822460621084600F0AEFCA8
:10154000062000F0F1FC22460621504600F0A6FCE1
:10155000504600F0E9FC22460621082000F09EFCDF
:10156000082000F0E1FC22460621092000F096FC4C
:10157000092000F0D9FC0DB0BDE8F08F001002404A
:1015800000180140001C01400010014000200140F3
:101590000000211000080140000C0140001401402F
:1015A00010B504460368B3F1804F04D02268064B9F
:1015B0009A4203D010BD00F041FCF7E7034A1368DC
:1015C00001331360F6E700BF00040040600A00200A
:1015D00008B5024B5B68984708BD00BF2800002093
:1015E00000B591B02822002106A805F0F5F90023E6
:1015F00001930293039304930593012206924FF4FF
:10160000803307930A9202220D920E934FF4E01357
:101610000F9306A801F000FA90B90F23019302215D
:101620000291002303934FF480620492059301A872
:1016300001F0C6FC38B901F093FC11B05DF804FB71
:10164000FFF7C6FFE9E7FFF7C3FFF4E708B500F0CF
:10165000E3FBFFF7C5FFFFF781FEFFF777FC00F024
:1016600087F900F0D5FA00F05BFA00F0EBFAFFF72B
:1016700033FE00F045F900F0A3F9044B1B689847CE
:10168000FFF768FD03F070FCFEE700BF24000020B8
:1016900008B5024B9B68984708BD00BF2800002092
:1016A00000B583B0114B9A6942F001029A619A69C0
:1016B00002F001020092009ADA6942F08052DA6187
:1016C000DB6903F080530193019B00220F216FF02F
:1016D000010000F0E3FB064A536823F0E06343F0A7
:1016E0000073536003B05DF804FB00BF00100240BC
:1016F0000000014030B589B00446224BDA6942F05F
:101700000102DA61DB6903F001030193019B02A985
:1017100003A801F08FFD069BD3B901F06BFD0346D2
:101720001948A0FB03239B0C013B18484FF0804253
:10173000026040F2E732C2604360002303618360CD
:10174000836102F07FF8054630B1284609B030BD0C
:1017500001F050FD4300E3E70C4801F001FF0546AE
:101760000028F2D11C2000F0DFFB0F2C01D901254D
:10177000EBE7002221461C2000F090FB044B1C608C
:10178000E3E700BF0010024083DE1B43640A002031
:101790000800002008B501F081FDFEE7FEE7FEE746
:1017A000FEE7FEE7704708B5012001F011F908BD1A
:1017B00008B5022001F00CF908BD08B5042001F0BD
:1017C00007F908BD08B5082001F002F908BD0000BE
:1017D00008B5024800F066FD08BD00BFD00B002030
:1017E00008B5024800F05EFD08BD00BF140C0020E3
:1017F00008B5024801F01DFF08BD00BF640A0020C3
:1018000008B5024801F015FF08BD00BFF80A002026
:1018100008B5024803F084F808BD00BFA00C002002
:1018200008B5024801F005FF08BD00BF400B0020CD
:1018300008B5024801F0FDFE08BD00BF880B00207E
:101840000120704708B505F09DF8162303604FF09E
:10185000FF3008BD08B54FF0FF31FFF7F3FFFEE79B
:1018600070B50C461646002506E0AFF30080214611
:1018700001F8010B01350C46B542F6DB304670BD70
:1018800070B50C461646002504E014F8010B05F06F
:1018900067F80135B542F8DB304670BD4FF0FF30D8
:1018A00070474FF400534B60002070470120704791
:1018B0000020704710B503460C4A0D490D480068DA
:1018C00040B10C4800680344521A934206D8094AB2
:1018D000136010BD0748084C0460F2E705F052F8A9
:1018E0000C2303604FF0FF30F3E700BF000001203E
:1018F00000040000AC0A0020883600207047000079
:1019000000B587B0002302930393049305930093DB
:1019100001931548154A02604722426083603122D4
:10192000C26003618023836101F08CFF90B94FF4A2
:101930008053029302A90C4802F026FA68B90023EA
:10194000009301936946084802F04AFC40B907B089
:101950005DF804FBFFF73CFEE9E7FFF739FEEEE731
:10196000FFF736FEF3E700BFF80A0020000400404E
:1019700000B583B00023009301930F480F4A026023
:1019800047224260836041F28733C36080238361D2
:1019900001F058FF50B900230093019369460648AF
:1019A00002F01EFC28B903B05DF804FBFFF710FE3F
:1019B000F1E7FFF70DFEF6E7400B002000100040B6
:1019C00000B583B00023009301930F480F4A0260D3
:1019D00041F61F42426083603123C36080238361EC
:1019E00001F030FF50B90023009301936946064887
:1019F00002F0F6FB28B903B05DF804FBFFF7E8FD41
:101A0000F1E7FFF7E5FDF6E7880B00200014004042
:101A100000B585B00368294A93420BD0284A934207
:101A200013D0284A934223D0274A934233D005B09B
:101A30005DF804FB254B9A6942F400629A619B6948
:101A400003F400630093009BF1E7204BDA6942F056
:101A50000202DA61DB6903F002030193019B0022B9
:101A600005211D2000F01AFA1D2000F05DFADEE7C6
:101A7000164BDA6942F01002DA61DB6903F01003F9
:101A80000293029B00220621362000F007FA36203E
:101A900000F04AFACBE70D4BDA6942F02002DA6136
:101AA000DB6903F020030393039B00220521372009
:101AB00000F0F4F9372000F037FAB8E7002C0140C5
:101AC00000040040001000400014004000100240DC
:101AD00000B587B000230293039304930593026833
:101AE0000D4B9A4202D007B05DF804FB03F5644346
:101AF0009A6942F004029A619B6903F0040301931E
:101B0000019B4FF48073029302230393059302A970
:101B1000024800F03DFDE6E7002C014000080140CE
:101B200010B596B000241294139414941594109444
:101B3000119409940A940B940C940D940E940F94A0
:101B40002022214601A804F047FF2F482F4B0360B5
:101B500047234360846040F2E733C360046144611B
:101B60008023836101F06EFE00283AD14FF4805348
:101B7000129312A9244802F007F9002834D1224810
:101B800001F0ECFE002832D100231093119310A92C
:101B90001D4802F025FB00282CD1602309934FF447
:101BA000FA730A9300220B920C920D920E920F92EE
:101BB00009A9154801F0BEFFF8B90023019302936B
:101BC0000393049305934FF400520692089301A9DE
:101BD0000D4802F089FB98B90B48FFF779FF16B062
:101BE00010BDFFF7F5FCC1E7FFF7F2FCC7E7FFF711
:101BF000EFFCC9E7FFF7ECFCCFE7FFF7E9FCDCE718
:101C0000FFF7E6FCE8E700BFB00A0020002C014027
:101C100008B50A480A4B03604FF4E13343600023E0
:101C20008360C3600361082242618361C36102F083
:101C30000DFD00B908BDFFF7CBFCFBE7580C0020F9
:101C40000038014008B50A480A4B03604FF4E133FD
:101C5000436000238360C36003610C22426183619F
:101C6000C36102F0F3FC00B908BDFFF7B1FCFBE76C
:101C7000A00C00200044004070B588B000230493FD
:101C80000593069307930368484A934205D0044698
:101C9000474A93422BD008B070BD464B9A6942F434
:101CA00080429A619A6902F480420092009A9A698D
:101CB00042F004029A619B6903F004030193019BC3
:101CC0004FF40073049302230593032307933A4CC4
:101CD00004A9204600F05CFC4FF4806304930023C9
:101CE0000593069304A9204600F052FCD3E7314B3C
:101CF000DA6942F40032DA61DA6902F400320292FF
:101D0000029A9A6942F004029A619B6903F0040303
:101D10000393039B04230493022305930323079354
:101D2000254E04A9304600F033FC08230493002517
:101D30000595069504A9304600F02AFC1F48204B63
:101D400003601023436085608023C36005614561A3
:101D500085614FF48053C36100F0FEF8F8B9174B6A
:101D6000A3635C621748184B0360002343608360E1
:101D70008022C2600361436183614FF40053C361F9
:101D800000F0EAF870B90F4BE3635C6200220521B2
:101D9000262000F083F8262000F0C6F87BE7FFF746
:101DA00017FCDCE7FFF714FCEDE700BF003801404B
:101DB000004400400010024000080140140C0020C4
:101DC00080000240D00B00206C000240FFF796FD1F
:101DD0000B480C490C4A002302E0D458C450043389
:101DE000C4188C42F9D3094A094C002301E013605E
:101DF0000432A242FBD304F0CBFDFFF727FC70476F
:101E000000000020E0090020E4F20008E0090020C2
:101E100088360020FEE7000008B5074A136843F043
:101E200010031360032000F01BF80020FFF762FC92
:101E3000FFF736FC002008BD00200240034A11686D
:101E4000034B1B780B441360704700BFE80C002065
:101E500004000020014B1868704700BFE80C002008
:101E600010B50446C31E042B0FD80A4AD36823F4C6
:101E7000E0631B041B0C240204F4E064234343F0DE
:101E8000BF6343F40033D36010BD91210248FFF7D4
:101E9000FFFBEAE700ED00E0ACEA000870B505469C
:101EA0000C4616460F2A25D80F2C28D81B4BDB686A
:101EB000C3F30223C3F10701042928BF04211A1D1B
:101EC000062A21D9033B4FF0FF3202FA01F124EA3E
:101ED00001049C4002FA03F326EA03063443002D72
:101EE00014DB2401E4B205F1604505F5614585F890
:101EF000004370BDA9210A48FFF7CAFBD4E7AA2115
:101F00000748FFF7C5FBD1E70023DCE705F00F0525
:101F10002401E4B2034B5C55EBE700BF00ED00E0A9
:101F2000ACEA000814ED00E010B5041E0ADB002C3A
:101F300007DB04F01F02640901239340044A42F8BE
:101F4000243010BDBD210348FFF7A2FBEFE700BF1F
:101F500000E100E0ACEA0008002800F0B78010B50E
:101F6000044603685A4A934225D01432934222D041
:101F7000143293421FD0143293421CD01432934235
:101F800019D01432934216D01432934213D002F572
:101F9000627293420FD0143293420CD014329342A7
:101FA00009D01432934206D01432934203D09921BF
:101FB0004848FFF76DFB636823B1102B02D0B3F5DF
:101FC000804F55D1A368402B01D0002B55D1E36839
:101FD000802B01D0002B55D123692BB1B3F5807F25
:101FE00002D0B3F5007F52D163692BB1B3F5806F96
:101FF00002D0B3F5006F4FD1A3690BB1202B50D1A4
:10200000E36943B1B3F5805F05D0B3F5005F02D05B
:10201000B3F5405F4AD121682F4B99424BD82F4BE3
:102020000B442F4AA2FB03231B099B0023642D4B67
:10203000E363022384F821300A6822F47F5222F0FD
:1020400030026368A0680343E068034320690343E8
:1020500060690343A0690343E069034313430B60D2
:102060000020A063012384F8213084F8200010BDF3
:102070009A211848FFF70CFBA4E79B211548FFF7AE
:1020800007FBA4E79C211348FFF702FBA4E79D216F
:102090001048FFF7FDFAA7E79E210E48FFF7F8FA70
:1020A000AAE79F210B48FFF7F3FAA9E7A021094807
:1020B000FFF7EEFAAFE70C4B0B44094AA2FB0323F0
:1020C0001B099B002364094BE363B2E701207047BF
:1020D0000800024014EB000807040240F8FFFDBFAF
:1020E000CDCCCCCC00000240F8FBFDBF0004024088
:1020F00090F82130DBB2022B06D004238363002347
:1021000080F82030012070470268136823F00E0326
:1021100013600268136823F001031360036CC16B42
:10212000012202FA03F34B6080F82120002380F89B
:10213000203018467047000008B590F82130DBB217
:10214000022B03D004238363012008BD02681368B7
:1021500023F00E0313600268136823F00103136079
:1021600003684C4A93424ED9783A934224D01432B1
:10217000934230D0143293422FD0143293422FD056
:10218000143293422FD0143293422FD01432934200
:102190002FD002F5627293422ED0143293422DD08A
:1021A000143293422CD01432934202D04FF4803236
:1021B00003E04FF4805200E00122374B5A600123C4
:1021C00080F82130002380F82030436B002B5ED054
:1021D00098470020B9E71022EFE74FF48072ECE750
:1021E0004FF48052E9E74FF48032E6E74FF4801273
:1021F000E3E74FF08072E0E70122DEE71022DCE740
:102200004FF48072D9E7254A934224D01432934286
:1022100025D01432934224D01432934224D0143265
:10222000934224D01432934224D01432934224D0C7
:1022300002F56272934223D01432934222D01432B8
:10224000934221D01432934202D04FF4803203E003
:102250004FF4805200E00122114B5A60AFE7102288
:10226000FAE74FF48072F7E74FF48052F4E74FF447
:102270008032F1E74FF48012EEE74FF08072EBE727
:102280000122E9E71022E7E74FF48072E4E700203B
:102290005BE700BF800002400004024008000240EB
:1022A0000000024038B5C36B1A6804682568016CE9
:1022B00004238B40134200F09B8015F0040F00F0C4
:1022C0009780236813F0200F03D1236823F00403C1
:1022D000236003689A4A934246D9783A934224D0BD
:1022E0001432934228D01432934227D014329342AE
:1022F00027D01432934227D01432934227D014327D
:10230000934227D002F56272934226D01432934250
:1023100025D01432934224D01432934202D04FF489
:10232000802203E04FF4804200E00422854B5A6093
:10233000C36A03B1984738BD4022F7E74FF4806283
:10234000F4E74FF48042F1E74FF48022EEE74FF4D8
:102350008002EBE74FF08062E8E70422E6E74022E4
:10236000E4E74FF48062E1E7774A934224D01432E5
:10237000934225D01432934224D01432934224D075
:102380001432934224D01432934224D01432934214
:1023900024D002F56272934223D01432934222D0A9
:1023A0001432934221D01432934202D04FF480224F
:1023B00003E04FF4804200E00422644B5A60B7E728
:1023C0004022FAE74FF48062F7E74FF48042F4E7E7
:1023D0004FF48022F1E74FF48002EEE74FF0806285
:1023E000EBE70422E9E74022E7E74FF48062E4E705
:1023F00002238B40134200F0AB8015F0020F00F077
:10240000A780236813F0200F06D1236823F00A0366
:102410002360012380F821300368494A93424BD955
:10242000783A934224D0143293422DD014329342FE
:102430002CD0143293422CD0143293422CD014322C
:1024400093422CD0143293422CD002F56272934204
:102450002BD0143293422AD01432934229D0143212
:10246000934202D04FF4003203E04FF4005200E0F8
:102470000222344B5A60002380F82030836A002BFC
:102480003FF459AF984756E72022F2E74FF4007225
:10249000EFE74FF40052ECE74FF40032E9E74FF476
:1024A0000012E6E74FF00072E3E70222E1E72022A4
:1024B000DFE74FF40072DCE7234A934224D0143262
:1024C000934225D01432934224D01432934224D024
:1024D0001432934224D01432934224D014329342C3
:1024E00024D002F56272934223D01432934222D058
:1024F0001432934221D01432934202D04FF400326E
:1025000003E04FF4005200E00222104B5A60B2E7A1
:102510002022FAE74FF40072F7E74FF40052F4E795
:102520004FF40032F1E74FF40012EEE74FF0007283
:10253000EBE70222E9E72022E7E74FF40072E4E745
:1025400080000240000402400800024000000240F7
:10255000082303FA01F111423FF4EDAE15F0080F24
:102560003FF4E9AE236823F00E032360026CC16BD5
:10257000012303FA02F24A60836380F821300023CA
:1025800080F82030036B002B3FF4D5AE9847D2E69D
:102590002DE9F04383B007460E46884B98421BD086
:1025A00003F58063984217D003F58063984213D0F7
:1025B00003F5806398420FD003F5806398420BD0F7
:1025C00003F58063984207D003F58063984203D0F7
:1025D000BD217B48FFF75CF833689AB212B11B0C3F
:1025E0001B041BB1BE217648FFF752F87368012B1C
:1025F0001ED9112B1CD0022B1AD0122B18D0714AC5
:10260000934215D002F58012934211D002F5801248
:1026100093420DD0A2F5F812934209D002F5801230
:10262000934205D002F58012934201D0032B03D1CF
:102630004FF000094D46FDE0BF216148FFF728F843
:10264000F6E7614A934210D007D9604A93420CD012
:1026500002F58032934208D01AE0A2F5801293422C
:1026600003D002F5702293420ED1B368022B00F220
:102670008D80B368002B00F09580012B00F08B80DB
:102680007C614FF0080903E0A2F580129342ECD080
:10269000B8F1FF0F00F289803846B8F1FF0F00F261
:1026A0008680AA0003680F21914023EA010309FAFA
:1026B00002F213430360736813F0805F00F0B98087
:1026C000434B9A6942F001029A619B6903F001034E
:1026D0000193019BAA08911C3E4B53F8210005F081
:1026E000030399000F238B4020EA0300334B9F42E2
:1026F00072D003F580639F4200F0F68003F580639B
:102700009F4200F0F38003F580639F4200F0F08069
:1027100003F580639F4200F0ED8003F580639F42E4
:1027200049D0062359E0F368013B022B02D8D6F8C2
:102730000C90ADE7D5212248FEF7AAFFF7E7F36832
:10274000013B022B03D8F36803F10409A0E7DC2165
:102750001B48FEF79DFFF6E7F368013B022B03D809
:10276000F36803F1080993E7E3211548FEF790FFAA
:10277000F6E7F368013B022B03D8F36803F10C0979
:1027800086E7EA210E48FEF783FFF6E7F7210C48BB
:10279000FEF77EFF6DE73C614FF0080978E74FF0E8
:1027A000000975E74FF0040972E7381D75E7A5F1D8
:1027B0000802920076E705230FE000BF0008014001
:1027C00078EB00080000111000002210000031100A
:1027D000001002400000014000238B4003430232FE
:1027E000534941F82230736813F4801F00F084804D
:1027F000504A936843EA08039360736813F4001F18
:1028000000F080804B4AD36843EA0803D3607368C2
:1028100013F4003F7CD0474A536843EA08035360EF
:10282000736813F4803F79D0424A136843EA08037F
:1028300013600135336833FA05F275D00124AC40DA
:1028400003EA040834EA0303F3D13B4B9F421BD055
:1028500003F580639F4217D003F580639F4213D036
:1028600003F580639F420FD003F580639F420BD036
:1028700003F580639F4207D003F580639F4203D036
:10288000CD212E48FEF704FF7368122B3FF6D9AE18
:10289000122B3FF6FDAE01A252F823F06B26000882
:1028A00027270008592700089F27000891260008BD
:1028B000912600089126000891260008912600081C
:1028C000912600089126000891260008912600080C
:1028D00091260008912600089126000891260008FC
:1028E0003F27000873270008012376E7022374E7D7
:1028F000032372E7042370E70E4A936823EA080370
:1029000093607AE70B4AD36823EA0803D3607EE733
:10291000084A536823EA0803536081E7054A1368AD
:1029200023EA0803136084E703B0BDE8F08300BF27
:1029300000000140000401400008014078EB00085D
:1029400038B504460D4621B1A3681D4207D00120C9
:1029500038BD4FF4DA710348FEF79AFEF4E7002021
:10296000F6E700BF78EB000870B5054614460E4642
:1029700021B1012C08D86CB12E6170BD4FF4EA7101
:102980000648FEF785FEF4E740F2D5110348FEF74E
:102990007FFEF0E736042E61EFE700BF78EB00081A
:1029A00038B505460C4641B1EB6804EA030224EA57
:1029B000030444EA02442C6138BD4FF4F671024826
:1029C000FEF766FEF0E700BF78EB000870470000F6
:1029D00008B5054B5B69034200D108BD024B586145
:1029E000FFF7F4FFF9E700BF0004014082B0084B95
:1029F0001B68084AA2FB03235B0A00FB03F3019355
:102A000000BF019B5A1E0192002BF9D102B0704702
:102A100000000020D34D6210002800F0898270B5BC
:102A200082B00446036813B113F00F0F2AD0236855
:102A300013F0010F40D063682BB1B3F5803F02D093
:102A4000B3F5A02F24D19C4B5B6803F00C03042B3F
:102A500029D0994B5B6803F00C03082B1ED06368E8
:102A6000B3F5803F55D0002B69D103F1804303F5C6
:102A700004331A6822F480321A601A6822F4802221
:102A80001A604BE040F265118C48FEF701FECEE77C
:102A900040F26B118948FEF7FBFDD4E7864B5B687B
:102AA00013F4803FDBD0844B1B6813F4003F03D04A
:102AB0006368002B00F03E82236813F0020F00F0E1
:102AC00089802369012B63D863691F2B66D87A4BF1
:102AD0005B6813F00C0F6CD0774B5B6803F00C0352
:102AE000082B61D02369002B00F09A80744B0122DF
:102AF0001A60FFF7AFF905466F4B1B6813F0020F22
:102B000040F08580FFF7A6F9401B0228F4D9032086
:102B100015E2694A136843F480331360636843B372
:102B2000FFF798F90546644B1B6813F4003FC3D1C7
:102B3000FFF790F9401B6428F5D90320FFE1B3F5B6
:102B4000A02F09D05C4B1A6822F480321A601A68F0
:102B500022F480221A60E1E703F18043A3F53C33BD
:102B60001A6842F480221A601A6842F480321A60AD
:102B7000D4E7FFF76FF905464F4B1B6813F4003F8E
:102B80009AD0FFF767F9401B6428F5D90320D6E1F6
:102B900040F29F114948FEF77BFD95E74FF4D07155
:102BA0004648FEF775FD92E7434B5B6813F4803FA0
:102BB00098D1414B1B6813F0020F03D02369012BFE
:102BC00040F0BA813C4A136823F0F803616943EA94
:102BD000C1031360236813F0080F3CD0A369012BD5
:102BE00030D8A369002B6FD0354B0122C3F8802465
:102BF000FFF730F90546304B5B6A13F0020F27D11F
:102C0000FFF728F9401B0228F5D9032097E12A4A4B
:102C1000136823F0F803616943EAC1031360D9E73D
:102C2000274B00221A60FFF715F90546224B1B6857
:102C300013F0020FCED0FFF70DF9401B0228F5D993
:102C400003207CE14FF4F0711C48FEF721FDC8E73A
:102C50000120FFF7CBFE236813F0040F00F0A480DF
:102C6000E368012B01D9052B41D1134BDB6913F02C
:102C7000805F42D1104BDA6942F08052DA61DB6941
:102C800003F080530193019B01250E4B1B6813F445
:102C9000807F34D0E368012B45D0002B5BD103F15A
:102CA000804303F504331A6A22F001021A621A6A99
:102CB00022F004021A623BE000100240DCEB000844
:102CC0000000424200700040A14B0022C3F8802463
:102CD000FFF7C0F805469F4B5B6A13F0020FBAD0AE
:102CE000FFF7B8F8401B0228F5D9032027E140F28E
:102CF0000F219948FEF7CCFCB7E70025C5E7974AB6
:102D0000136843F480731360FFF7A4F80646934BEF
:102D10001B6813F4807FBDD1FFF79CF8801B6428EB
:102D2000F5D903200BE18B4A136A43F001031362C8
:102D3000E36833B3FFF78EF80646864B1B6A13F041
:102D4000020F2FD1FFF786F8801B41F2883398429B
:102D5000F3D90320F3E0052B09D07E4B1A6A22F049
:102D600001021A621A6A22F004021A62E0E7794B41
:102D70001A6A42F004021A621A6A42F001021A62E6
:102D8000D6E7FFF767F80646724B1B6A13F0020F8F
:102D900008D0FFF75FF8801B41F288339842F3D9DF
:102DA0000320CCE0002D53D1E369022B56D8E36910
:102DB000002B00F0C380674A526802F00C02082A18
:102DC00000F0A680022B40F08F80236A13B1B3F588
:102DD000803F49D1636A4BB3B3F5802F26D0B3F55A
:102DE000002F23D0B3F5402F20D0B3F5801F1DD086
:102DF000B3F5A01F1AD0B3F5C01F17D0B3F5E01F6D
:102E000014D0B3F5001F11D0B3F5101F0ED0B3F5D9
:102E1000201F0BD0B3F5301F08D0B3F5401F05D0ED
:102E2000B3F5501F02D0B3F5601F23D1484B0022E9
:102E30001A66FFF70FF80546464B1B6813F0007F34
:102E40001ED0FFF707F8401B0228F5D9032076E0D3
:102E5000404AD36923F08053D361A5E740F2AD2106
:102E60003D48FEF715FCA2E740F2B6213A48FEF7CE
:102E70000FFCAFE740F2B7213748FEF709FCD5E772
:102E8000236AB3F5803F1AD032494B6823F4741398
:102E9000226A606A024313434B602D4B01221A667B
:102EA000FEF7D8FF04462B4B1B6813F0007F19D1A7
:102EB000FEF7D0FF001B0228F5D903203FE0A368EE
:102EC00013B1B3F5003F07D1224A536823F400330E
:102ED000A1680B435360D7E740F2CD211E48FEF7AF
:102EE000D7FBF1E700202AE0194B00221A66FEF713
:102EF000B1FF0446174B1B6813F0007F06D0FEF7A6
:102F0000A9FF001B0228F5D9032018E0002016E0D5
:102F1000012B16D00F4B5B6803F48031226A91427B
:102F200011D103F47013626A93420ED1002006E0BF
:102F300001207047012002E0012000E0002002B0E3
:102F400070BD0120FBE70120F9E70120F7E700BF92
:102F50000000424200100240DCEB0008007000401C
:102F6000014B0122DA647047000042420F4B5B685C
:102F700003F00C02082A01D00D487047C3F38342C6
:102F80000C49885C13F4803F0BD0084B5B68C3F39B
:102F90004043094AD35C064A02FB00F0B0FBF3F061
:102FA0007047064B03FB00F0704700BF0010024063
:102FB00000127A0040EC000850EC000800093D00C7
:102FC000002800F0FC8070B50D460446036813F03D
:102FD0000F0F6DD0022D71D87D4B1B6803F00703D6
:102FE000AB420BD27A4A136823F007032B431360DA
:102FF000136803F00703AB4240F0E380236813F04B
:10300000020F29D013F0040F04D0724A536843F41E
:10301000E0635360236813F0080F04D06D4A5368CF
:1030200043F460535360A3687BB1802B0DD0902B89
:103030000BD0A02B09D0B02B07D0C02B05D0D02BA4
:1030400003D0E02B01D0F02B3ED1624A536823F02D
:10305000F003A1680B435360236813F0010F4DD0B8
:103060006368022B36D86368012B39D0022B3ED01F
:10307000584A126812F0020F00F0A58055494A68BC
:1030800022F0030213434B60FEF7E4FE0646514B69
:103090005B6803F00C036268B3EB820F2ED0FEF77F
:1030A000D9FE801B41F288339842F0D9032079E0A1
:1030B00040F236314848FEF7EBFA8BE740F2373101
:1030C0004548FEF7E5FA87E740F25D314248FEF7F2
:1030D000DFFABAE74FF459713F48FEF7D9FAC2E771
:1030E0003C4A126812F4003FC8D101205AE0394A24
:1030F000126812F0007FC1D1012053E0344B1B68ED
:1031000003F00703AB420AD9314A136823F00703DF
:103110002B431360136803F00703AB4255D12368B8
:1031200013F0040F14D0E3685BB1B3F5806F08D0DF
:10313000B3F5A06F05D0B3F5C06F02D0B3F5E06F63
:1031400031D1244A536823F4E063E1680B435360B0
:10315000236813F0080F15D023695BB1B3F5806FB6
:1031600008D0B3F5A06F05D0B3F5C06F02D0B3F5AA
:10317000E06F1ED1174A536823F46053216943EA74
:10318000C1035360FFF7F2FE124B5B68C3F30313F6
:10319000124AD35CD840124B1860124B1868FEF7E5
:1031A000A9FA002070BD40F2A2310B48FEF770FA78
:1031B000C7E740F2A9310848FEF76AFADAE70120CA
:1031C00070470120EEE70120ECE70120EAE700BFAD
:1031D0000020024000100240DCEB000894EA0008E6
:1031E0000000002008000020014B1868704700BF55
:1031F0000000002008B5FFF7F7FF044B5B68C3F33E
:103200000223034AD35CD84008BD00BF001002402F
:10321000A4EA000808B5FFF7E7FF044B5B68C3F3B7
:10322000C223034AD35CD84008BD00BF001002404F
:10323000A4EA000838B50D460446D0B1FDB10F230D
:103240002360124B5A6802F0030262605A6802F06F
:10325000F002A2605A6802F4E062E2605B68DB0898
:1032600003F4E06323610A4B1B6803F007032B6040
:1032700038BD40F221510748FEF70AFADEE740F276
:1032800022510448FEF704FAD9E700BF00100240BB
:1032900000200240DCEB00087047000008B5064B38
:1032A0009B6813F0800F00D108BDFFF7F5FF024BBC
:1032B00080229A72F8E700BF0010024060B370B538
:1032C0000E46154604468369B3F5807F26D090F8F4
:1032D0004130E3B1214651F8080B01F065FCA268CA
:1032E0003146206801F038FD236BA26829466068EA
:1032F00001F0B6FD2268A16852F8213043F00103C5
:1033000042F82130012384F84130002070BD80F85C
:103310004030FEF71FF8DDE7012070470120F5E798
:1033200010B4036A046A24F001040462846924F07E
:10333000F00C4CEA021223F00A030B438261036291
:1033400010BC704710B4036A046A24F010040462CD
:10335000846924F4704C4CEA023223F0A00343EA5F
:1033600001138261036210BC7047836823F070030D
:103370000B4343F007038360704700002DE9F041E1
:1033800004460D46066A036A23F001030362476898
:10339000836923F073080B6843EA080826F00203E8
:1033A0008E681E43204B984203D003F50063984279
:1033B00009D1EB680BB1082B24D126F00806EB6885
:1033C0001E4326F00406184B9C4203D003F500630D
:1033D0009C420FD1AB69B3F5007F00D0C3B96B69D4
:1033E000B3F5807F00D0CBB927F440776B693B43BE
:1033F000AF691F436760C4F818806B686363266217
:10340000BDE8F08141F6C4210848FEF741F9D4E750
:1034100041F6D1210548FEF73BF9E0E741F6D2211C
:103420000248FEF735F9DFE7002C014054EC0008B4
:103430002DE9F04104460E46056A036A23F48073C1
:1034400003624768C36923F073080B6843EA0808FE
:1034500025F400758B6845EA0325224B984203D07A
:1034600003F5006398420AD1F3680BB1082B27D10A
:1034700025F40065F36845EA032525F48065194BBA
:103480009C4203D003F500639C4211D1B369B3F5AC
:10349000007F00D0D3B97369B3F5807F00D0DBB96A
:1034A00027F44057736947EA0317B36947EA0317DC
:1034B0006760C4F81C807368E3632562BDE8F0812F
:1034C00041F65C310848FEF7E3F8D1E741F669318F
:1034D0000548FEF7DDF8DEE741F66A310248FEF7FF
:1034E000D7F8DDE7002C014054EC00082DE9F0414D
:1034F00004460D46066A036A23F480530362D0F83B
:103500000480C76927F4E6470B6847EA032726F4D7
:1035100000568B6846EA03360F4B984203D003F5FA
:103520000063984209D16B69B3F5807F00D063B91D
:1035300028F480486B6948EA8318C4F80480E7617E
:103540006B6823642662BDE8F08141F6A931034827
:10355000FEF79EF8ECE700BF002C014054EC000899
:1035600010B5044603682E4A93421FD002F500624C
:1035700093421BD0B3F1804F18D0A2F598329342FA
:1035800014D002F58062934210D002F5806293421B
:103590000CD002F58062934208D002F5806293421B
:1035A00004D04FF4E8711F48FEF772F894F83D30EC
:1035B000DBB2012B2FD1022384F83D302268D3687F
:1035C00043F00103D3602368154A934218D002F5F3
:1035D0000062934214D0B3F1804F11D0A2F598321B
:1035E00093420DD002F58062934209D002F58062C9
:1035F000934205D01A6842F001021A6000200BE0E5
:103600009A6802F00702062A07D01A6842F00102FF
:103610001A60002000E0012010BD0020FCE700BF80
:10362000002C014054EC0008704770477047704709
:10363000704710B5044603681A6912F0020F11D0E2
:10364000DA6812F0020F0DD06FF002021A61012346
:10365000037703689B6913F0030F70D0FFF7E6FF51
:103660000023237723681A6912F0040F12D0DA6856
:1036700012F0040F0ED06FF004021A6102232377B8
:1036800023689B6913F4407F5FD02046FFF7CEFF8D
:103690000023237723681A6912F0080F12D0DA6822
:1036A00012F0080F0ED06FF008021A61042323777E
:1036B0002368DB6913F0030F4ED02046FFF7B6FFF7
:1036C0000023237723681A6912F0100F12D0DA68EA
:1036D00012F0100F0ED06FF010021A61082323773A
:1036E0002368DB6913F4407F3DD02046FFF79EFF3F
:1036F0000023237723681A6912F0010F03D0DA68D8
:1037000012F0010F36D123681A6912F0800F03D02E
:10371000DA6812F0800F34D123681A6912F0400F72
:1037200003D0DA6812F0400F32D123681A6912F020
:10373000200F03D0DA6812F0200F30D110BDFFF750
:1037400074FF2046FFF773FF8AE72046FFF76DFFFF
:103750002046FFF76CFF9BE72046FFF766FF2046F9
:10376000FFF765FFACE72046FFF75FFF2046FFF756
:103770005EFFBDE76FF001021A612046FDF710FF02
:10378000C1E76FF080021A61204600F040FEC3E7F7
:103790006FF040021A612046FFF74AFFC5E76FF05D
:1037A00020021A61204600F031FEC7E70368244A70
:1037B000904212D002F5006290420ED0B0F1804FDC
:1037C0000BD0A2F59832904207D002F58062904269
:1037D00003D002F58062904203D123F070034A685F
:1037E0001343174A904212D002F5006290420ED065
:1037F000B0F1804F0BD0A2F59832904207D002F57D
:103800008062904203D002F58062904203D123F49B
:103810004073CA68134323F080034A69134303606B
:103820008B68C3620B688362054B984203D003F533
:103830000063984201D10B69036301234361704720
:10384000002C0140002800F0828010B50446036877
:10385000404A93421FD002F5006293421BD0B3F15D
:10386000804F18D0A2F59832934214D002F58062AE
:10387000934210D002F5806293420CD002F5806230
:10388000934208D002F58062934204D040F21311B3
:103890003148FDF7FDFEA3683BB1102B05D0202B6E
:1038A00003D0402B01D0602B33D123692BB1B3F56A
:1038B000807F02D0B3F5007F31D1E368013B4FF642
:1038C000FE72934231D8A3690BB1802B33D194F8A7
:1038D0003D30B3B3022384F83D30214651F8040B48
:1038E000FFF764FF012384F8463084F83E3084F803
:1038F0003F3084F8403084F8413084F8423084F816
:10390000433084F8443084F8453084F83D3000205A
:1039100010BD4FF48A711048FDF7BAFEC5E740F2BA
:1039200015110D48FDF7B4FEC7E74FF48B710A4837
:10393000FDF7AEFEC7E740F217110748FDF7A8FEF6
:10394000C5E784F83C302046FEF762F8C2E7012064
:10395000704700BF002C014054EC0008002800F024
:10396000828010B504460368404A93421FD002F596
:10397000006293421BD0B3F1804F18D0A2F5983269
:10398000934214D002F58062934210D002F5806217
:1039900093420CD002F58062934208D002F5806217
:1039A000934204D040F22C513148FDF771FEA368D8
:1039B0003BB1102B05D0202B03D0402B01D0602B26
:1039C00033D123692BB1B3F5807F02D0B3F5007FEB
:1039D00031D1E368013B4FF6FE72934231D8A369BF
:1039E0000BB1802B33D194F83D30B3B3022384F86C
:1039F0003D30214651F8040BFFF7D8FE012384F82F
:103A0000463084F83E3084F83F3084F8403084F803
:103A1000413084F8423084F8433084F8443084F8EC
:103A2000453084F83D30002010BD40F22D51104843
:103A3000FDF72EFEC5E740F22E510D48FDF728FE9A
:103A4000C7E740F22F510A48FDF722FEC7E74FF4BF
:103A5000A6610748FDF71CFEC5E784F83C30204608
:103A6000FFF7E2FDC2E70120704700BF002C0140D4
:103A700054EC00082DE9F04104460E46056A036A3D
:103A800023F010030362D0F80480876927F4E64727
:103A90000B6847EA032725F020058B6845EA0315E4
:103AA000224B984203D003F5006398420AD1F36891
:103AB0000BB1082B27D125F08005F36845EA0315E3
:103AC00025F04005194B9C4203D003F500639C424E
:103AD00011D1B369B3F5007F00D0D3B97369B3F5E1
:103AE000807F00D0DBB928F44068736948EA830816
:103AF000B36948EA8308C4F80480A7617368A363C4
:103B00002562BDE8F08141F610310948FDF7C0FD9E
:103B1000D1E741F61E310648FDF7BAFDDEE741F672
:103B20001F310348FDF7B4FDDDE700BF002C014065
:103B300054EC000870B504460D4616463AB1042A06
:103B400005D0082A03D00C2A01D03C2A26D12B68A4
:103B5000602B01D0702B27D1AB680BB1022B29D180
:103B60002B690BB1042B2BD194F83C30012B00F0C6
:103B7000F880012384F83C300C2E00F2ED80DFE861
:103B800016F02500EB00EB00EB005600EB00EB001D
:103B9000EB008800EB00EB00EB00B90041F27E0186
:103BA0007148FDF775FDD2E741F27F016E48FDF7E0
:103BB0006FFDD1E74FF484516B48FDF769FDCFE706
:103BC00041F281016848FDF763FDCDE72368674A4C
:103BD000934217D002F50062934213D0B3F1804FA5
:103BE00010D0A2F5983293420CD002F58062934235
:103BF00008D002F58062934204D041F28B015A480A
:103C0000FDF746FD29462068FFF7B8FB2268936957
:103C100043F0080393612268936923F004039361DE
:103C20002268936929690B439361002095E023681A
:103C30004E4A934217D002F50062934213D0B3F17B
:103C4000804F10D0A2F5983293420CD002F58062DA
:103C5000934208D002F58062934204D041F29C0165
:103C60004148FDF715FD29462068FFF703FF22684C
:103C7000936943F4006393612268936923F480633A
:103C8000936122689369296943EA012393610020C3
:103C900063E02368354A934217D002F500629342ED
:103CA00013D0B3F1804F10D0A2F5983293420CD0CC
:103CB00002F58062934208D002F58062934204D0FC
:103CC00041F2AD012848FDF7E3FC29462068FFF7E3
:103CD000AFFB2268D36943F00803D3612268D3693C
:103CE00023F00403D3612268D36929690B43D361AC
:103CF000002032E023681D4A934217D002F500628B
:103D0000934213D0B3F1804F10D0A2F59832934272
:103D10000CD002F58062934208D002F58062934293
:103D200004D041F2BE011048FDF7B2FC29462068DC
:103D3000FFF7DCFB2268D36943F40063D361226898
:103D4000D36923F48063D3612268D369296943EA84
:103D50000123D361002000E00120002384F83C30DF
:103D600070BD0220FCE700BF54EC0008002C0140AD
:103D700010B4846824F47F4C42EA03220A4342EAE6
:103D80000C02826010BC704738B590F83C30012BB3
:103D900000F0208204460D46012380F83C300223C7
:103DA00080F83D300B68B3F5805F11D0702B0FD0D9
:103DB000B3F5005F0CD0402B0AD0502B08D0602BFD
:103DC00006D02BB1102B03D0202B01D0302B46D1A5
:103DD0002268936823F47F4323F0770393602B6872
:103DE000602B00F0698176D8402B00F0A4813CD98B
:103DF000502B6ED12368A24A934217D002F500627D
:103E0000934213D0B3F1804F10D0A2F59832934271
:103E10000CD002F58062934208D002F58062934292
:103E200004D041F2FD419748FDF732FC6B68B3F5D1
:103E3000004F05D023B1022B02D00A2B40F0308175
:103E4000EB680F2B00F23281EA6869682068FFF79F
:103E500067FA50212068FFF788FA00200BE041F252
:103E6000BE418848FDF714FCB2E7202B0DD009D9DC
:103E7000302B0AD00120012384F83D30002384F840
:103E80003C3038BD0BB1102B21D123687C4A9342C2
:103E900017D002F50062934213D0B3F1804F10D0D7
:103EA000A2F5983293420CD002F58062934208D07A
:103EB00002F58062934204D041F230517148FDF71F
:103EC000E7FB29682068FFF750FA0020D3E70120BC
:103ED000D1E70120CFE7B3F5805F00F08A80B3F52A
:103EE000005F42D12368664A934217D002F5006210
:103EF000934213D0B3F1804F10D0A2F59832934281
:103F00000CD002F58062934208D002F580629342A1
:103F100004D041F2E9415B48FDF7BAFBAB684BB115
:103F2000B3F5805F06D0B3F5005F03D0B3F5405F13
:103F300040F09F806B68B3F5004F05D023B1022B92
:103F400002D00A2B40F0A080EB680F2B00F2A28079
:103F5000EB686A68A9682068FFF70AFF226893681F
:103F600043F480439360002085E7702B3FD12368A2
:103F7000434A934217D002F50062934213D0B3F143
:103F8000804F10D0A2F5983293420CD002F5806297
:103F9000934208D002F58062934204D041F2D141AD
:103FA0003848FDF775FBAB6843B1B3F5805F05D0CA
:103FB000B3F5005F02D0B3F5405F48D16B68B3F54D
:103FC000004F04D01BB1022B01D00A2B45D1EB6866
:103FD0000F2B48D8EB686A68A9682068FFF7C8FE0D
:103FE0002268936843F077039360002043E7012041
:103FF00041E72368224A934200F0DC8002F5006228
:10400000934200F0D980B3F1804F00F0D780A2F541
:104010009832934200F0D48002F58062934200F01F
:10402000D18002F58062934200F0CE8002F580627A
:10403000934200F0CB8002F58062934200F0C8808A
:1040400041F2CA410F48FDF723FB002013E741F27C
:10405000D4410C48FDF71CFBB0E741F2D5410948BB
:10406000FDF716FBB3E741F2D6410648FDF710FB1A
:10407000B0E741F2EC410348FDF70AFB5AE700BF05
:10408000002C014054EC000841F2ED415248FDF78C
:10409000FFFA59E741F2EE414F48FDF7F9FA57E7C9
:1040A0004FF4A8514C48FDF7F3FAC9E641F201512B
:1040B0004948FDF7EDFAC7E62368484A934217D00E
:1040C00002F50062934213D0B3F1804F10D0A2F5F5
:1040D000983293420CD002F58062934208D002F5E8
:1040E0008062934204D041F20D513B48FDF7D0FA73
:1040F0006B68B3F5004F04D01BB1022B01D00A2B23
:104100000DD1EB680F2B10D8EA6869682068FFF7BB
:1041100019F960212068FFF728F90020ABE641F289
:1041200010512D48FDF7B4FAEBE741F211512A483E
:10413000FDF7AEFAE8E72368284A934217D002F564
:104140000062934213D0B3F1804F10D0A2F59832A1
:1041500093420CD002F58062934208D002F580624F
:10416000934204D041F21D511B48FDF791FA6B6850
:10417000B3F5004F04D01BB1022B01D00A2B0DD197
:10418000EB680F2B10D8EA6869682068FFF7C8F859
:1041900040212068FFF7E9F800206CE64FF4A951B0
:1041A0000D48FDF775FAEBE741F221510A48FDF79A
:1041B0006FFAE8E700205EE600205CE600205AE6A1
:1041C000002058E6002056E6002054E6002052E683
:1041D000002050E6022054E654EC0008002C014078
:1041E00038B504460D4603683D4A93421FD002F598
:1041F000006293421BD0B3F1804F18D0A2F59832E1
:10420000934214D002F58062934210D002F580628E
:1042100093420CD002F58062934208D002F580628E
:10422000934204D040F2B4712E48FDF731FA2B6866
:104230006BB1102B0BD0202B09D0302B07D0402B8B
:1042400005D0502B03D0602B01D0702B39D16B6877
:10425000802B01D0002B3AD194F83C30012B3CD07C
:10426000012384F83C30022384F83D3023685968E8
:10427000986821F070012A680A435A602368184A36
:10428000934212D002F5006293420ED0B3F1804FF8
:104290000BD0A2F59832934207D002F58062934288
:1042A00003D002F58062934204D120F080006A6856
:1042B00010439860012384F83D30002084F83C00CE
:1042C00038BD40F2B5710748FDF7E2F9BFE740F2AB
:1042D000B6710448FDF7DCF9BEE70220F0E700BF45
:1042E000002C0140B8EC000838B504460D460368C0
:1042F000444A934208D002F50062934204D040F24F
:10430000F1714148FDF7C4F92B68B3F5006F01D096
:10431000002B4AD16B68B3F5806F01D0002B4AD1D6
:10432000AB6843B1B3F5807F05D0B3F5007F02D011
:10433000B3F5407F45D1EB68FF2B48D82B69B3F527
:10434000805F01D0002B48D16B6913B1B3F5005FDA
:1043500049D1EB69B3F5804F01D0002B49D194F8D6
:104360003C30012B4BD0012384F83C30EB6823F424
:104370004073AA68134323F480636A68134323F4E9
:1043800000632A68134323F480532A69134323F4F8
:1043900000536A69134323F48043EA691343226894
:1043A0005364002084F83C0038BD40F2F271164896
:1043B000FDF76EF9AEE740F2F3711348FDF768F9C7
:1043C000AEE740F2F4711048FDF762F9B3E740F24E
:1043D000F5710D48FDF75CF9B0E740F2F6710A4857
:1043E000FDF756F9B0E740F2F7710748FDF750F9CD
:1043F000AFE74FF4FF610448FDF74AF9AFE7022049
:10440000D2E700BF002C0140B8EC000870477047AD
:10441000026802F10C0353E8003F23F490730C325E
:1044200042E800310029F3D1026802F1140353E895
:10443000003F23F00103143242E800310029F3D198
:10444000036B012B05D0202380F842300023036347
:104450007047026802F10C0353E8003F23F0100399
:104460000C3242E800310029F3D1ECE790F84130FA
:10447000DBB2212B01D0022070478368B3F5805F47
:1044800017D0036A5A1C02621A7803685A60C38CF8
:104490009BB2013B9BB2C3844BB90268D36823F043
:1044A0008003D3600268D36843F04003D3600020E8
:1044B00070470369002BE4D1036A1B880268C3F3C9
:1044C00008035360036A02330362E0E710B5044651
:1044D0004268384B9A4257D8E36813B1B3F5005F8E
:1044E00058D123692BB1B3F5806F02D0B3F5C06FFB
:1044F00056D163694FF6F372134200D123B940F6E7
:1045000069612D48FDF7C4F82268136923F440530C
:10451000E1680B431361A3682269134362691A437C
:104520002168CB6823F4B05323F00C031343CB6012
:104530002268536923F44073A1690B4353612268D5
:104540001E4B9A4232D0FEF755FE024602EB820223
:1045500002EB820263689B00B2FBF3F21848A0FBF7
:1045600002314909642303FB11231B013233A0FBF1
:1045700003235B0903F0F00202EB011203F00F03C7
:10458000216813448B6010BD40F666610A48FDF750
:104590007FF8A1E740F667610748FDF779F8A0E7E3
:1045A00040F668610448FDF773F8A2E7FEF732FEB3
:1045B0000246CBE720AA440020ED00080038014065
:1045C0001F85EB512DE9F84305460F4616469946DF
:1045D000DDF820802C68246837EA04030CBF4FF014
:1045E000010C4FF0000CB4452DD1B8F1FF3FF1D0D4
:1045F000B8F1000F05D0FDF72DFCA0EB09004045F8
:10460000E8D92A6802F10C0353E8003F23F4D07381
:104610000C3242E800310029F3D12A6802F1140378
:1046200053E8003F23F00103143242E8003100292F
:10463000F3D1202385F8413085F84230002385F8F6
:104640004030032000E00020BDE8F883002875D04A
:1046500010B5044683690BB30368394A93420CD002
:10466000A2F57442934208D002F58062934204D0CE
:104670004FF4B7713348FDF70BF8A3693BB3B3F5BB
:10468000807F24D0B3F5007F21D0B3F5407F1ED0CA
:1046900040F26F112B48FCF7FBFF18E00368284A33
:1046A000934214D0A2F57442934210D002F5806276
:1046B00093420CD002F58062934208D002F58062EA
:1046C000934204D040F273111E48FCF7E1FFA36847
:1046D00013B1B3F5805F25D194F8413043B324235F
:1046E00084F841302268D36823F40053D360204615
:1046F000FFF7ECFE2268136923F4904313612268EC
:10470000536923F02A0353612268D36843F40053AA
:10471000D36000206064202384F8413084F8423064
:10472000606310BD40F275110648FCF7B1FFD3E796
:1047300084F840302046FDF79FFAD0E7012070470B
:104740000038014020ED00082DE9F04182B01E46FE
:1047500090F84130DBB2202B4BD104460D469046F9
:1047600000294AD00AB9012044E0002343642123F0
:1047700080F84130FDF76EFB0746A4F82480A4F8CA
:104780002680A368B3F5805F02D04FF000080FE0E9
:104790002369FBB14FF000080AE038F8023B2268B9
:1047A000C3F308035360E28C92B2013A92B2E284FE
:1047B000E38C9BB28BB100963B46002280212046C1
:1047C000FFF700FFD8B9002DE7D015F8012B2368BB
:1047D0005A60E8E7A8460025EAE700963B46002233
:1047E00040212046FFF7EEFE58B9202384F84130DF
:1047F00000E0022002B0BDE8F0810120FAE70320CA
:10480000F8E70320F6E7704708B50168CA6822F0A8
:104810004002CA60202280F84120FFF7F4FF002008
:1048200008BD7047704708B5406A0023C385C3843C
:10483000FFF7F8FF08BD704790F84230DBB2222B3B
:1048400069D18368B3F5805F4FD0826AB3F5805F2A
:1048500004D0002B56D10369002B53D103685B6849
:104860001370836A01338362C38D9BB2013B9BB299
:10487000C385002B51D100B583B00268D36823F003
:104880002003D3600268D36823F48073D360026886
:10489000536923F001035361202380F84230002341
:1048A0004363036B012B33D100230363026802F1DE
:1048B0000C0353E8003F23F010030C3242E80031B0
:1048C0000029F3D103681A6812F0100F06D00022F5
:1048D00001921A6801925B680193019B818DFFF739
:1048E000AAFF002003B05DF804FB0269002AACD1E6
:1048F000826A03685B68C3F308031380836A023328
:104900008362B1E703685B6803F07F031370A8E775
:10491000FFF787FFE5E7022070470020704700009F
:1049200030B583B0044602681368D068516913F04B
:104930000F0505D113F0200F02D010F0200F19D170
:104940002DB111F0010119D110F4907F16D1216B16
:1049500001297DD013F0800F03D010F0800F40F0BC
:10496000188113F0400F03D010F0400F40F0158174
:1049700003B030BD2046FFF75FFFF9E713F0010FEA
:1049800006D010F4807F03D0626C42F001026264B2
:1049900013F0040F04D019B1626C42F00202626499
:1049A00013F0020F04D019B1626C42F00402626489
:1049B00013F0080F07D010F0200F00D119B1626C6E
:1049C00042F008026264626C002AD1D013F0200F1A
:1049D00002D010F0200F29D123685B6903F0400357
:1049E000626C12F0080F00D163B32046FFF710FD90
:1049F00023685B6913F0400F20D0226802F1140392
:104A000053E8003F23F04003143242E8003100290C
:104A1000F3D1E36B73B1634A5A63E06BFDF78CFB30
:104A20000028A5D0E06B436B9847A1E72046FFF72D
:104A300003FFD1E72046FFF7F5FE99E72046FFF791
:104A4000F1FE95E72046FFF7EDFE002363648FE754
:104A500013F0100F3FF47EAF10F0100F3FF47AAF59
:104A6000002301931368019353680193019B5369D9
:104A700013F0400F51D0E26B13685B689BB2002BC0
:104A80003FF476AFA18D99427FF672AFE3859369CB
:104A9000202B37D0226802F10C0353E8003F23F4A7
:104AA00080730C3242E800310029F3D1226802F110
:104AB000140353E8003F23F00103143242E80031AD
:104AC0000029F3D1226802F1140353E8003F23F0D8
:104AD0004003143242E800310029F3D1202384F846
:104AE000423000232363226802F10C0353E8003FA5
:104AF00023F010030C3242E800310029F3D1E06BBF
:104B0000FDF7F6FA02236363A18DE38D9BB2C91A08
:104B100089B22046FFF78FFE2AE7A18DE38D9BB275
:104B2000C91A89B2E38D9BB2002B3FF421AF002953
:104B30003FF41EAF226802F10C0353E8003F23F458
:104B400090730C3242E800300028F3D1226802F161
:104B5000140353E8003F23F00103143242E800300D
:104B60000028F3D1202384F84230002323632268F5
:104B700002F10C0353E8003F23F010030C3242E82B
:104B800000300028F3D1022363632046FFF753FE71
:104B9000EEE62046FFF76AFCEAE62046FFF734FE21
:104BA000E6E600BF2748000838B505460C46B0F1D8
:104BB000204F03D0D8216648FCF76AFD23682BB14B
:104BC000022B03D0042B01D0062B78D163680BB1E4
:104BD000022B79D1A3681BB1042B01D0082B78D10B
:104BE000E3681BB1102B01D0202B77D1236913B1BF
:104BF000B3F5807F77D1636913B1B3F5007F77D1C7
:104C0000A36913B1B3F5806F77D1E36913B1B3F53D
:104C1000006F77D1236A13B1B3F5805F77D1636AF0
:104C200013B1B3F5005F77D1A36A13B1B3F5804F29
:104C300077D1E36A13B1B3F5004F77D1236B13B18A
:104C4000B3F5002F77D1636B5BB1B3F5803F08D02C
:104C5000B3F5003F05D0B3F5403F02D0B3F5802F48
:104C60006ED1226855F8223023F0010345F8223036
:104C7000A368082B69D0002162680A431343E268E5
:104C800013432269134362691343E2691343226A9F
:104C90001343626A1343A26A1343E26A1343226B0B
:104CA0001343A2691343626B1343216855F8210033
:104CB000284A02401A4345F82120002038BDD92156
:104CC0002348FCF7E5FC81E7DA212148FCF7E0FC0A
:104CD00080E7DB211E48FCF7DBFC81E7DC211C4878
:104CE000FCF7D6FC82E7DD211948FCF7D1FC82E70E
:104CF000DE211748FCF7CCFC82E7DF211448FCF7E3
:104D0000C7FC82E7E0211248FCF7C2FC82E7E12100
:104D10000F48FCF7BDFC82E7E2210D48FCF7B8FC28
:104D200082E7E3210A48FCF7B3FC82E7E421084864
:104D3000FCF7AEFC82E7E5210548FCF7A9FC82E719
:104D4000E6210348FCF7A4FC8BE7402194E700BF71
:104D500084ED00088000F0FF70B505460C4616464D
:104D6000B0F1204F04D040F24D113C48FCF790FCCC
:104D700023680F2B42D86368013B0E2B44D8A368ED
:104D8000013BFE2B46D8E3680F2B49D82369023B31
:104D90000E2B4BD86369023B0F2B4DD8A36943B14F
:104DA000B3F1805F05D0B3F1005F02D0B3F1405F93
:104DB00048D12EB1022E03D0042E01D0062E47D1A9
:104DC000013655F8262002F040422368616843EA24
:104DD0000113A16843EA0123E16843EA0143216921
:104DE000013943EA01536169023943EA0163A16968
:104DF0000B43134345F82630002070BD4FF4A771D4
:104E00001648FCF745FCB6E740F24F111348FCF793
:104E10003FFCB4E74FF4A8711048FCF739FCB2E747
:104E200040F251110D48FCF733FCAFE74FF4A97184
:104E30000A48FCF72DFCADE740F253110748FCF798
:104E400027FCABE74FF4AA710448FCF721FCB0E75C
:104E500040F255110148FCF71BFCB1E784ED000856
:104E6000F8B506460C4615461F4613B1B3F5804FFC
:104E700008D1B7F5804F0BD06FF0704346F825305E
:104E80000020F8BD4FF4BA713148FCF701FCF0E79F
:104E9000304B9E4204D04FF4BD712D48FCF7F8FB17
:104EA00023680F2B30D86368013B0E2B32D8A368E0
:104EB000013BFE2B34D8E3680F2B37D8A36943B1ED
:104EC000B3F1805F05D0B3F1005F02D0B3F1405F72
:104ED00032D12DB1022D03D0042D01D0062D31D1B8
:104EE00056F825301C4A1A402368616843EA0113CA
:104EF000A16843EA0123A1690B43E16843EA014346
:104F0000134346F82530BBE740F27B111048FCF70D
:104F1000BFFBC8E74FF4BE710D48FCF7B9FBC6E70D
:104F200040F27D110A48FCF7B3FBC4E740F27F1161
:104F30000748FCF7ADFBC1E74FF4C2710448FCF72A
:104F4000A7FBC6E740F285110148FCF7A1FBC7E7C4
:104F500084ED0008040100A00000F0CF842801D0F7
:104F6000033070470020704708B500F087FF00202D
:104F700008BDF0B585B00C46456806680769B0F90C
:104F80000800FFF7EBFF03AB019300902346BAB292
:104F90003146284600F0FFFE012802D1039805B0F3
:104FA000F0BD0020FBE708B500B9012001F0BEF814
:104FB000002008BD00F1080343604FF0FF3282601B
:104FC000C3600361002303607047002303617047DF
:104FD00043684B609A688A60516099600861036811
:104FE00001330360704730B40D68B5F1FF3F11D055
:104FF00000F108031C465B681A68AA42FAD9636884
:105000004B6099608C6061600861036801330360E4
:1050100030BC70470469F2E70369416882688A60BE
:10502000416851605A68824206D0002202611A68C3
:10503000013A1A601868704782685A60F5E7000004
:1050400082B0002301930D4B1B68B3F1FF3F08D0E2
:105050004FF0500383F31188BFF36F8FBFF34F8F6F
:10506000FEE74FF0500383F31188BFF36F8FBFF358
:105070004F8F019B002BFCD002B070470C0000202A
:1050800006480068006880F3088862B661B6BFF31E
:105090004F8FBFF36F8F00DF00BF000008ED00E00F
:1050A0004FF0807340F8043C21F0010140F8081CE7
:1050B000034B40F80C3C40F8202C4038704700BFB0
:1050C0004150000800000000000000000000000047
:1050D000074B19680868B0E8F00F80F30988BFF340
:1050E0006F8F4FF0000080F311884EF00D0E704767
:1050F0000C3500204FF0500383F31188BFF36F8FFE
:10510000BFF34F8F0B4A136801331360012B00D09C
:1051100070474FF0E023D3F8043D13F0FF0FF7D0B2
:105120004FF0500383F31188BFF36F8FBFF34F8F9E
:10513000FEE700BF0C000020094B1B6843B94FF08D
:10514000500383F31188BFF36F8FBFF34F8FFEE7D8
:10515000013B034A13600BB983F31188704700BF0A
:105160000C00002000000000000000000000000013
:10517000EFF30980BFF36F8F0D4B1A6820E9F00F32
:1051800010602DE908404FF0500080F3118800F0C6
:10519000F3FF4FF0000080F31188BDE80840196864
:1051A0000868B0E8F00F80F30988BFF36F8F70478D
:1051B0000C35002008B54FF0500383F31188BFF37E
:1051C0006F8FBFF34F8F00F0A9FE28B14FF0E0239F
:1051D0004FF08052C3F8042D002383F3118808BDDB
:1051E0004FF0E022002313619361054B1B680549D2
:1051F000A1FB03139B09013B536107231361704714
:1052000000000020D34D621010B582B02A4B1A78EE
:10521000D2B20192FF221A701B78DBB28DF80330F4
:105220009DF8033003F05003244A1370244B0722E7
:105230001A6009E0224A1368013B13609DF80330AD
:105240005B00DBB28DF803309DF8033013F0800F64
:10525000F0D11B4B1B68032B08D04FF0500383F396
:105260001188BFF36F8FBFF34F8FFEE71B02144A05
:10527000136003F4E0631360019BDBB20E4A13700A
:105280004FF0E023D3F8202D42F47002C3F8202D14
:10529000D3F8202D42F07042C3F8202DFFF7A0FF75
:1052A0000024084B1C60FFF7EBFE00F065FFFFF7E2
:1052B000C7FE204602B010BD00E400E0EC0C002068
:1052C000F00C00200C000020124A12F0070F1ED034
:1052D000D11D21F00701C1F5205313440A460E48A1
:1052E0000260002141601344083B23F007030B4890
:1052F000036059601960991A51601360084B196076
:10530000084B1960084B4FF000421A6070474FF489
:105310002053E4E7F80C002004350020F40C0020B2
:1053200000350020FC340020F8340020154B1A46CC
:105330001B688342FBD3516802EB010C844509D002
:10534000416800EB010C634509D00360904218D01E
:10535000106070474068014451601046F0E710B497
:10536000094C2468A3420AD05B6819444160136861
:105370001B680360904200D0106010BC704704604E
:10538000F8E7704704350020F40C002070B505469E
:1053900000F0BCFD344B1B68A3B1344B1B681D42AD
:1053A0004AD135B1083515F0070F02D025F00705B1
:1053B0000835002D42D02E4B1B68AB424DD32D4AF1
:1053C000146804E0FFF780FFE7E722461C466368A5
:1053D000AB4202D22368002BF7D1234B1B68A342B8
:1053E0003DD0166808362368136063685B1B102B7A
:1053F00010D9601910F0070F08D04FF0500383F355
:105400001188BFF36F8FBFF34F8FFEE74360656076
:10541000FFF78CFF626816490B689B1A0B601649F0
:1054200009688B4201D214490B60104B1B6813436F
:1054300063600023236002E0002600E0002600F005
:10544000F9FD16F0070F0CD04FF0500383F31188CD
:10545000BFF36F8FBFF34F8FFEE70026EFE7002605
:10546000EDE7304670BD00BFF40C0020F83400209A
:10547000FC340020043500200035002080B338B50E
:105480000446A0F1080550F8043C164A126813427D
:1054900008D14FF0500383F31188BFF36F8FBFF330
:1054A0004F8FFEE750F8081C41B14FF0500383F3D3
:1054B0001188BFF36F8FBFF34F8FFEE723EA02031C
:1054C00040F8043C00F022FD54F8041C064A13681E
:1054D0000B4413602846FFF729FF00F0ABFD38BDF1
:1054E000704700BFF8340020FC34002010B504469B
:1054F000FFF700FEA26BE36B9A4204D00024FFF793
:105500001BFE204610BD0124F9E710B50446FFF745
:10551000F1FDA36B23B90124FFF70EFE204610BD59
:105520000024F9E770B504461546866B026C5AB93B
:1055300003681BB100200136A66370BD406801F00E
:1055400007F800236360F6E76DB98068FBF72CF875
:10555000226CA3681344A3606268934219D3236842
:10556000A3602846E7E7C068FBF71EF8226C5142AB
:10557000E3689B1AE3602268934202D263680B449B
:10558000E360022D01D00020D5E726B1013E0020C6
:10559000D1E72846CFE70020CDE708B50346026CE7
:1055A00062B10846D9681144D960D3F804C0614596
:1055B00001D31968D960D968FAF7F6FF08BD38B584
:1055C0000546FFF797FD95F8454064B201E0013CC0
:1055D00064B2002C0ADD6B6A43B105F1240000F0CF
:1055E00049FE0028F3D000F0D9FEF0E7FF2385F84C
:1055F0004530FFF7A1FDFFF77DFD95F8444064B20B
:1056000001E0013C64B2002C0ADD2B6943B105F1D5
:10561000100000F02FFE0028F3D000F0BFFEF0E7EE
:10562000FF2385F84430FFF787FD38BD38B5E0B17A
:105630000D460446FFF75EFD2368E26B216C01FB1B
:10564000023060600020A063A360013A02FB0133D6
:10565000E360FF2384F8443084F84530FDB92369C2
:1056600063B9FFF769FD012038BD4FF0500383F3A4
:105670001188BFF36F8FBFF34F8FFEE704F1100067
:1056800000F0F8FD0028ECD04FF0E0234FF08052FE
:10569000C3F8042DBFF34F8FBFF36F8FE1E704F121
:1056A0001000FFF787FC04F12400FFF783FCD8E724
:1056B00038B51D46049C0B4649B92460E063236459
:1056C00001212046FFF7B2FF84F84C5038BD22601C
:1056D000F4E740B94FF0500383F31188BFF36F8FA5
:1056E000BFF34F8FFEE7F0B583B00C461546064674
:1056F00089B101FB00F05030FFF748FE074638B192
:1057000000902B4600F1500221463046FFF7D0FFB3
:10571000384603B0F0BD0846EDE7F0B585B001921C
:1057200088B10F461D460446B1B1022D20D1E36B6E
:10573000012B1DD04FF0500383F31188BFF36F8FFF
:10574000BFF34F8FFEE74FF0500383F31188BFF391
:105750006F8FBFF34F8FFEE7036C002BE5D04FF048
:10576000500383F31188BFF36F8FBFF34F8FFEE7B2
:1057700000F0DEFE064658B9019B002B48D04FF0E2
:10578000500383F31188BFF36F8FBFF34F8FFEE792
:1057900000263DE02A4639462046FFF7C3FE636AED
:1057A0007BB948B14FF0E0234FF08052C3F8042D8D
:1057B000BFF34F8FBFF36F8FFFF7BEFC012005B023
:1057C000F0BD04F1240000F055FD0028F4D04FF0A6
:1057D000E0234FF08052C3F8042DBFF34F8FBFF387
:1057E0006F8FE9E7FFF7A8FC0020E8E702A800F0C8
:1057F00087FD012619E0002384F8443021E00023CE
:1058000084F8453023E02046FFF7D9FE00F012FC73
:10581000FFF770FCA26BE36B9A42BBD3022DB9D0A9
:10582000019B002BDED0002EE0D0FFF785FC00F0BE
:105830006DFBFFF75FFC94F8442052B2B2F1FF3FDA
:10584000D9D094F8452052B2B2F1FF3FD7D0FFF73C
:1058500073FC01A902A800F05FFDD8B92046FFF74C
:1058600045FE0028CFD0019904F1100000F0EAFCB9
:105870002046FFF7A4FE00F0DDFB0028C8D14FF062
:10588000E0234FF08052C3F8042DBFF34F8FBFF3D6
:105890006F8FBDE72046FFF792FE00F0CBFB0020A4
:1058A0008DE7F0B585B0019290B10F460446C1B1C5
:1058B00000F03EFE064600BB019B002B5ED04FF081
:1058C000500383F31188BFF36F8FBFF34F8FFEE751
:1058D0004FF0500383F31188BFF36F8FBFF34F8FE7
:1058E000FEE7036C002BE3D04FF0500383F31188E5
:1058F000BFF36F8FBFF34F8FFEE700263EE03946C0
:105900002046FFF74AFE013DA563236923B9FFF74F
:1059100013FC012005B0F0BD04F1100000F0AAFC5A
:105920000028F4D04FF0E0234FF08052C3F8042D4C
:10593000BFF34F8FBFF36F8FE9E7FFF7FDFB002049
:10594000E8E702A800F0DCFC012621E0002384F84F
:10595000443029E0002384F845302BE02046FFF74F
:105960002EFE00F067FB09E02046FFF728FE00F05E
:1059700061FB2046FFF7C9FD00283FD1FFF7BAFBC6
:10598000A56B002DBBD1019B002BD6D0002ED8D00B
:10599000FFF7D2FB00F0BAFAFFF7ACFB94F8443003
:1059A0005BB2B3F1FF3FD1D094F845305BB2B3F1B5
:1059B000FF3FCFD0FFF7C0FB01A902A800F0ACFC6D
:1059C0000028D1D12046FFF7A0FD0028C6D00199BC
:1059D00004F1240000F036FC2046FFF7F0FD00F053
:1059E00029FB0028CAD14FF0E0234FF08052C3F8C2
:1059F000042DBFF34F8FBFF36F8FBFE7002089E700
:105A0000002301E0013001330278A52AFAD0C3F364
:105A10008F007047084B1B681B6823B9074B4FF07A
:105A2000FF321A607047044B1B68DB68DB685A68FA
:105A3000024B1A60704700BF10350020F03500207F
:105A40002DE9F04780460D4617469946089EDDF839
:105A500024A00A9C9200A521206B00F0BDFF236BBF
:105A600007F18042013A03EB820727F007074FF066
:105A7000000CBCF1130F0BD815F80C2004EB0C0331
:105A800083F8342015F80C3013B10CF1010CF0E759
:105A9000002384F84730062E00D90626E6622665E4
:105AA00000256565201DFFF790FA04F11800FFF747
:105AB0008CFA2461C6F10706A6616462A565C4F884
:105AC000885484F88C544FF48562294604F16000B0
:105AD00000F082FF04F55373636604F56D73A366EB
