:020000040800F2
:10000000E0080120A10100080F380008132C0008A7
:100010000D380008130800083549000800000000EA
:10002000000000000000000000000000F94000088F
:100030001508000800000000113A0008FB40000805
:10004000BB010008BB010008BB010008BB010008A0
:10005000BB010008BB010008BB010008BB01000890
:10006000BB010008BB010008BB010008BB01000880
:10007000BB010008BB010008BB010008BB01000870
:10008000BB010008BB010008BB010008BB01000860
:10009000BB010008BB010008BB010008BB01000850
:1000A000BB010008BB010008BB010008BB01000840
:1000B000BB010008BB010008BB010008BB01000830
:1000C000BB010008BB010008BB010008BB01000820
:1000D000BB010008BB010008BB010008BB01000810
:1000E000BB010008BB010008BB010008BB01000800
:1000F000BB010008BB010008BB010008BB010008F0
:10010000BB010008BB010008BB010008BB010008DF
:10011000BB010008BB010008A5410008BB010008A5
:10012000BB010008BB010008BB010008BB010008BF
:10013000BB010008BB010008BB010008BB010008AF
:10014000BB010008BB010008BB010008BB0100089F
:10015000BB010008BB010008BB010008BB0100088F
:10016000BB010008BB010008BB010008BB0100087F
:10017000BB010008BB010008BB0100080000000033
:10018000BB010008BB010008DFF810D000F094FAB2
:10019000004800470D8D0208AFF30080E008012001
:1001A0000648804706480047FEE7FEE7FEE7FEE711
:1001B000FEE7FEE7FEE7FEE7FEE7FEE79541000803
:1001C000890100082DE9F05F0546002092469B4614
:1001D00088460646814640241BE02846414647465D
:1001E000224600F0A0F853465A46C01A914110D357
:1001F00011461846224600F087F82D1A67EB0108D1
:100200004F4622460120002100F07EF817EB00093E
:100210004E41201EA4F10104DFDC484631462A4647
:100220004346BDE8F09F40EA01039B0703D009E085
:1002300008C9121F08C0042AFAD203E011F8013BD2
:1002400000F8013B521EF9D27047D2B201E000F82B
:10025000012B491EFBD270470022F6E710B513466A
:100260000A4604461946FFF7F0FF204610BD10B5B8
:10027000044604E00B7800F8013B03B1491C521E10
:10028000F8D2204610BD421C10F8011B0029FBD1FA
:10029000801A704710B5002200E0521C835C8C5C11
:1002A000A34201D1002BF8D1D8B2E1B2401A10BD5F
:1002B00030B504460020034600E05B1C934203D2A5
:1002C000E05CCD5C401BF8D030BD034611F8012B3B
:1002D00000F8012B002AF9D11846704730B50B46BB
:1002E000014600202022012409E021FA02F59D4266
:1002F00005D303FA02F5491B04FA02F52844151E3A
:10030000A2F10102F1DC30BD202A04DB203A00FA20
:1003100002F1002070479140C2F1200320FA03F35C
:10032000194390407047202A04DB203A21FA02F05A
:100330000021704721FA02F3D040C2F1200291401F
:100340000843194670472DE9FE4F804681EA0300B5
:10035000C00F0C46009021F0004123F00045B8EB9F
:100360000200A94105D24046214690461C460B4654
:10037000024623F00040104347D0270DC7F30A0080
:10038000C3F30A510290401A019040286BDAC3F37C
:10039000130040F4801B0098924620B10023D2EB5A
:1003A000030A63EB0B0B01985946C0F1400250461B
:1003B000FFF7AAFF06460D4650465946019A00F03F
:1003C0008DF910EB08006141002487EA115284EA9C
:1003D000E7731A4340D0009A62B3019A012A4FEAA8
:1003E000075215DC001B61EB02014FF0004202EAEC
:1003F0000752CDE90042001C41F5801132462B46E0
:1004000000F08DF903B0BDE8F08F40462146F9E7D2
:10041000001B61EB0201001C41F5801300185B41D9
:100420002018A2F5001747EB030140EAD570B61972
:100430006D4111E06D084FEA360645EAC0754FEA96
:100440000752001B61EB0201001C41F580114908B5
:100450004FEA30000019514132462B4603B0BDE847
:10046000F04F00F04DB90098012240000023D0EB7E
:10047000020263EBE073009821464FEAE074B8EBA8
:10048000000061EB0401E9E783F000435BE781F0E2
:10049000004158E72DE9FE4F81EA030404F00044CF
:1004A00021F0004100944FF0000B23F0004350EA8C
:1004B00001045ED052EA03045BD0C3F30A54C1F3D3
:1004C0000A552C44A4F2F3340194A0FB0254C1F366
:1004D000130141F48011C3F3130343F4801301FBB0
:1004E000024400FB034E840A970A44EA815447EA17
:1004F0008357A4FB076802958D0A05FB07854FEA21
:10050000932C04FB0C542705029D4FEA065847EA3A
:100510001637B5EB08056EEB070C870E920E47EA0F
:10052000811742EA8312A7FB0201B6EB0B0164EBD1
:1005300000042B0D43EA0C335E1844EB1C50DA46E2
:100540005146E7FB0201C5F313044FEA0B3343EABC
:1005500014534FEA0432019C43EA0603A4F10C044D
:100560000294009CCDE900B400F0D9F803B0BDE8D6
:10057000F08F00200146F9E72DE9F04D81EA0304F0
:1005800004F0004B21F0004514464FF0000A23F020
:10059000004150EA050220D054EA01021DD0C5F303
:1005A0000A570246C5F31303C1F31300C1F30A56F9
:1005B00040F4801543F48013A7EB0608101BD646C1
:1005C00008F2FD3873EB050002D308F1010801E0E1
:1005D00092185B41B8F1000F03DA00200146BDE834
:1005E000F08D00204FF48011064684460EE0171B64
:1005F00073EB050705D3121B63EB050306434CEAB7
:10060000010C49084FEA300092185B4150EA01079B
:10061000EDD152EA030012D082EA040083EA050118
:10062000084305D0101BAB4106D20122002306E08F
:1006300000224FF0004302E06FF0010253101AEB6A
:1006400006004CEB085110EB0A0041EB0B01BDE832
:10065000F04D00F055B8C1F30A52C1F3130140F256
:10066000FF3341F480119A4202DA002001467047BC
:1006700040F233439A42A2F2334202DC5242FFF785
:1006800052BEFFF741BE000030B5041E71F10004F8
:1006900004DB4FF00044404264EB0101141E73F18F
:1006A000000405DB1C464FF00043524263EB040399
:1006B000994208BF904230BD064C074D06E0E06805
:1006C00040F0010394E8070098471034AC42F6D399
:1006D000FFF75EFD1838030838380308202A06DBC8
:1006E000CB17203A41FA02F043EAE07306E041FA00
:1006F00002F3D040C2F120029140084319467047EE
:1007000010B5141E73F1000408DA401C41F1000119
:1007100092185B411A4301D120F0010010BD2DE970
:10072000F04D92469B4611B1B1FA81F202E0B0FA67
:1007300080F220329046FFF7E7FD04460F4640EA7C
:100740000A0041EA0B0153465A46084313D01146AA
:1007500053EA010019D0C8F140025046FFF7E3FD0B
:1007600005460E46504659464246FFF7CDFD084322
:1007700005D0012004E020463946BDE8F08D002078
:10078000054346EAE0762C4337430A986305E40ABA
:10079000A0EB08000022FD0A44EA47540A3002D5C3
:1007A00000200146E9E7010510196941DDE9084526
:1007B00000196941BDE8F04DA2E770B58C1810F83A
:1007C000015B15F0070301D110F8013B2A1106D196
:1007D00010F8012B03E010F8016B01F8016B5B1EB0
:1007E000F9D12B0705D40023521E0DD401F8013B8B
:1007F000FAE710F8013BCB1A921C03E013F8015BF7
:1008000001F8015B521EF9D5A142D8D3002070BD7A
:100810007047FEE7704700000D4900220B685A62DE
:100820000A68136843F00103136009684A6A824248
:10083000FCD3086A41F21112104207D1086A9210E3
:10084000104203D1086820F00100086070470000E2
:1008500040040020704772B6FEE7000070B51546F0
:100860000C4606463BB1B3F5804F07D040F2B311BA
:1008700030A008F001F86FF0704056E03B48864227
:1008800004D040F2B9112BA007F0F6FF20680F2822
:1008900004D94FF4DD7127A007F0EEFF6068401E19
:1008A0000E2804D940F2BB1122A007F0E5FFA06892
:1008B000401EFE2804D94FF4DE711EA007F0DCFFB5
:1008C000E0680F2804D940F2BD111AA007F0D4FF48
:1008D000A06968B1B0F1805F0AD0B0F1005F07D0C5
:1008E000B0F1405F04D04FF4DF7112A007F0C4FFF5
:1008F00055B1022D08D0042D06D0062D04D040F2AB
:10090000BF110CA007F0B8FFA1692068A2680843D6
:100910006168090141EA02210843A18940EA0140D6
:1009200056F82510124A1140084346F825000020C9
:1009300070BD00002E2E2F447269766572732F539E
:10094000544D3332463478785F48414C5F44726985
:100950007665722F5372632F73746D3332663478F9
:10096000785F6C6C5F66736D632E6300040100A09A
:100970000000F0CF70B50C460546B0F1204F03D013
:10098000E3215FA007F078FF206848B1022807D074
:10099000042805D0062803D0E42159A007F06CFFF5
:1009A000606828B1022803D0E52155A007F064FF54
:1009B000A06838B1042805D0082803D0E62150A04B
:1009C00007F05AFFE06838B1102805D0202803D07E
:1009D000E7214BA007F050FF206930B1B0F5807FD0
:1009E00003D0E82146A007F047FF606930B1B0F5B9
:1009F000007F03D0E92142A007F03EFFA06930B19B
:100A0000B0F5806F03D0EB213DA007F035FFE06922
:100A100030B1B0F5006F03D0ED2139A007F02CFF05
:100A2000206A30B1B0F5805F03D0EE2134A007F02A
:100A300023FF606A30B1B0F5005F03D0EF2130A032
:100A400007F01AFFA06A30B1B0F5804F03D0F02153
:100A50002BA007F011FFE06A30B1B0F5004F03D0D2
:100A6000F12127A007F008FF206B30B1B0F5002F6F
:100A700003D0F22122A007F0FFFEE06B78B1B0F5C1
:100A8000803F0CD0B0F5003F09D0B0F5403F06D014
:100A9000B0F5802F03D0F92119A007F0EDFE2068F2
:100AA00055F8201021F0010145F82010A268082A0D
:100AB00023D000206168204B1143E2680243206983
:100AC0001143014360690143E0690143206A014326
:100AD000606A0143A06A0143E06A0143206B01435D
:100AE000A0690843E16B0143206855F820209A4330
:100AF0000A4345F82020002070BD4020DAE70000BE
:100B00002E2E2F447269766572732F53544D3332F3
:100B1000463478785F48414C5F4472697665722F3D
:100B20005372632F73746D3332663478785F6C6CF4
:100B30005F66736D632E63007FFF0F0070B515460F
:100B40000C460646B0F1204F04D04FF4C17139A0D5
:100B500007F092FE20680F2804D940F2831135A0D7
:100B600007F08AFE6068401E0E2804D94FF4C27157
:100B700030A007F081FEA068401EFE2804D940F294
:100B800085112CA007F078FEE0680F2804D94FF4F7
:100B9000C37128A007F070FE2069801E0E2804D9BA
:100BA00040F2871123A007F067FE6069801E0F28BE
:100BB00004D94FF4C4711FA007F05EFEA16969B1AA
:100BC000B1F1805F0AD0B1F1005F07D0B1F1405FB1
:100BD00004D040F2891117A007F04EFE55B1022D46
:100BE00008D0042D06D0062D04D04FF4C57111A0F5
:100BF00007F042FED4E9000140EA0110A168A28991
:100C0000090241EA02410843218A184A02EB0151D4
:100C10000843217D520102EB01610843A1690843A9
:100C200006EB85014A6802F040421043486000200C
:100C300070BD00002E2E2F447269766572732F539B
:100C4000544D3332463478785F48414C5F44726982
:100C50007665722F5372632F73746D3332663478F6
:100C6000785F6C6C5F66736D632E63000000F0FF4D
:100C700070B5044600F058FA0546601C02D00448DE
:100C80000078044400F050FA401BA042FAD370BD33
:100C900008000020F0B587B014216846FFF7DCFAA1
:100CA00015480168002924D101210160134800245E
:100CB000016841F0010101600068022500F00100B7
:100CC00005904FF68070CDE9000502AA03260C2797
:100CD00082E8D00069460A4800F016F84EF2B37078
:100CE000CDE9000502AA694682E8D000054800F077
:100CF0000BF807B0F0BD00000000002038380240BB
:100D000000100240000C02402DE9F84FDFF888B2D5
:100D10000D46044658451BD0A048844218D0A04830
:100D2000844215D09F48844212D09F4884420FD0FD
:100D30009E4884420CD09E48844209D09D488442FB
:100D400006D09D48844203D0AC219CA007F094FDBE
:100D500028680104090C01D0000C03D0AD2197A034
:100D600007F08AFD6868F8B101281DD011281BD052
:100D7000022819D0122817D0B0F5881F14D0B0F56A
:100D8000041F11D0B0F5441F0ED0B0F5901F0BD04A
:100D9000B0F5081F08D0B0F5481F05D0032803D0D0
:100DA000AE2186A007F068FD00264FF0010A4FF043
:100DB000030900BF0AFA06F02F688046074047453E
:100DC0007ED1287900F00300012801D002281DD12E
:100DD000E86848B1012807D0022805D0032803D0CD
:100DE000C02176A007F048FDA168720009FA02F060
:100DF0008143E86890400843A0606068297920EA50
:100E00000800C1F30011B140014361602879C0437B
:100E1000800712D0A86838B1012805D0022803D075
:100E2000D12166A007F028FDE168720009FA02F0FE
:100E30008143A86890400843E060287900F00300EF
:100E400002282ED12869F8B109281DD001281BD00D
:100E5000022819D0032817D0042815D0052813D04C
:100E6000062811D007280FD008280DD00A280BD04B
:100E70000B2809D00C2807D00D2805D00F2803D047
:100E8000DE214EA007F0F8FCF00804EB8002106AA7
:100E90007107CB0E0F21994088432969994001437E
:100EA00011622068720009FA02F18843297901F081
:100EB0000301914001432160686810F4403F00E065
:100EC00063E062D04C48016841F4804101600068F1
:100ED00026F0030100F48040009048480A18D2F838
:100EE0000808B1070B0F0F21994088435C4501D1D9
:100EF000002123E029498C4201D101211EE028492B
:100F00008C4201D1022119E026498C4201D10321F2
:100F100014E025498C4201D104210FE023498C4281
:100F200001D105210AE022498C4201D1062105E0C8
:100F300020498C4201D1072100E00821994001435A
:100F4000C2F808182E4908686A68B843D20200D56A
:100F5000384308602A49091D08686A68B843920244
:100F600000D5384308602649091F08686A68B843F5
:100F7000920300D5384308602149083908686A6837
:100F8000B843D20300D538430860761C102EFFF416
:100F900011AFBDE8F88F00000000024000040240DD
:100FA00000080240000C0240001002400014024001
:100FB00000180240001C0240002002402E2E2F4448
:100FC0007269766572732F53544D33324634787894
:100FD0005F48414C5F4472697665722F5372632F8C
:100FE00073746D3332663478785F68616C5F6770F4
:100FF000696F2E6300000000443802400030014059
:10100000083C014070B50C00054604D14FF4BE7198
:1010100003A007F031FC2869204000D0012070BDFA
:101020002E2E2F447269766572732F53544D3332CE
:10103000463478785F48414C5F4472697665722F18
:101040005372632F73746D3332663478785F6861DE
:101050006C5F6770696F2E630000000070B50C0054
:10106000054604D14FF4DB7105A007F005FC696962
:1010700024EA0100214040EA0140A86170BD00005F
:101080002E2E2F447269766572732F53544D33326E
:10109000463478785F48414C5F4472697665722FB8
:1010A0005372632F73746D3332663478785F68617E
:1010B0006C5F6770696F2E630000000070B51546A5
:1010C0000C00064604D140F29D1108A007F0D4FBA5
:1010D00045B1012D04D04FF4CF7104A007F0CCFB33
:1010E000B46170BD2004B06170BD00002E2E2F448D
:1010F0007269766572732F53544D33324634787863
:101100005F48414C5F4472697665722F5372632F5A
:1011100073746D3332663478785F68616C5F6770C2
:10112000696F2E630000000001488068704700006E
:1011300008000020024881680278114481607047ED
:10114000080000200B4810B5016841F400710160EF
:10115000016841F480610160016841F480710160BF
:10116000032000F0C3F8002000F006F800F024F897
:10117000002010BD003C024070B50D4D04464FF4F8
:101180007A712878B1FBF0F00A490968B1FBF0F0F8
:1011900001F0FEF848B9102C07D200222146501E5B
:1011A00000F054F800206C6070BD012070BD00009C
:1011B00008000020140000200A4808B5016841F426
:1011C00080410160006800F4804000900548001FE5
:1011D000016841F080510160006800F0805000908B
:1011E00008BD00004438024010B5040003D5BC21FE
:1011F00007A007F041FB002C09DB04F01F010120D0
:1012000088406109890001F1E021C1F8000110BDA9
:101210002E2E2F447269766572732F53544D3332DC
:10122000463478785F48414C5F4472697665722F26
:101230005372632F73746D3332663478785F6861EC
:101240006C5F636F727465782E63000070B515462D
:101250000C460646102A03D3A82114A007F00CFB65
:10126000102C03D3A92111A007F006FB1E4800682B
:10127000C0F30223C3F107022046042A00D9042246
:10128000191D072901D2002300E0DB1E012404FA06
:1012900002F1491E014099409C40641E2C402143AC
:1012A0003046BDE8704003F057BB00002E2E2F449F
:1012B0007269766572732F53544D333246347878A1
:1012C0005F48414C5F4472697665722F5372632F99
:1012D00073746D3332663478785F68616C5F636F06
:1012E000727465782E6300000CED00E010B50446C2
:1012F00007280BD0062C09D0052C07D0042C05D0CC
:10130000032C03D0902108A007F0B6FA154904F089
:10131000070208684FF6FF03184040EA0220124A0D
:101320001043086010BD00002E2E2F4472697665B0
:1013300072732F53544D3332463478785F48414CA2
:101340005F4472697665722F5372632F73746D33C5
:1013500032663478785F68616C5F636F7274657849
:101360002E6300000CED00E00000FA052DE9F047C7
:101370000E4604007DD02068401E0E2804D940F29D
:101380005A217AA007F078FA96B1012E10D0022ED9
:101390000ED0032E0CD0042E0AD0052E08D0062E17
:1013A00006D0072E04D040F25B2170A007F064FA4B
:1013B000DFF8F081D8F80000F7B200F00700B04283
:1013C00007D288F80070D8F8000000F00700B0429B
:1013D0004FD12068744D810729D5400703D528686F
:1013E00040F4E05028602078000703D5286840F4D6
:1013F00060402860A068A0B1802812D0902810D04A
:10140000A0280ED0B0280CD0C0280AD0D02808D0F0
:10141000E02806D0F02804D040F27E2153A007F047
:101420002BFA2868A16820F0F00008432860207893
:10143000C00743D0DFF870916068A9F1080988B14E
:10144000012822D0022824D0032822D040F285216E
:1014500046A007F011FA6068012816D0022818D0BB
:10146000032816D0D9F800008007002833DA28684E
:1014700000E030E0616820F0030008432860FFF7D7
:1014800053FE814641F2883A11E0D9F8000080030A
:10149000EBE7D9F800008001E7E700BFFFF744FE63
:1014A000A0EB0901514502D90320BDE8F087286867
:1014B000616800F00C00B0EB810FEFD1D8F800109C
:1014C000404601F00701B14207D90770006800F0FB
:1014D0000700B04201D00120E7E720784FF48056A2
:1014E00040074FF4A0574FF4C0584FF4E05914D5BB
:1014F000E06860B1B0420AD0B84208D0404506D09A
:10150000484504D040F2C32118A007F0B5F9286877
:10151000E16820F4E050084328602078000715D5E2
:10152000206960B1B0420AD0B84208D0404506D028
:10153000484504D040F2CA210CA007F09DF9286864
:10154000216920F4604040EAC100286000F054F8AE
:101550002968164AC1F30311515CC8401449086058
:1015600014480068FFF708FE00209EE72E2E2F4447
:101570007269766572732F53544D333246347878DE
:101580005F48414C5F4472697665722F5372632FD6
:1015900073746D3332663478785F68616C5F726340
:1015A000632E6300003C024008380240A0DB0208C2
:1015B000140000200C000020044805490068096858
:1015C000044AC1F38221515CC840704714000020D6
:1015D00008380240B0DB0208044805490068096881
:1015E000044AC1F34231515CC840704714000020E6
:1015F00008380240B0DB0208154810B5006810F04A
:101600000C02144813D04110042A0FD0082A0ED11E
:101610000F4C241F2268236802F03F025B0207D5AB
:101620002068C0F38810A0FB010106E0084610BD49
:101630002168C1F38811A1FB00010023FEF7C2FD60
:101640002168C1F30141491C4900B0FBF1F010BD14
:10165000083802400024F4002DE9F84F04007DD042
:1016600020680F2803D9E621F7A007F005F92078B4
:10167000DFF80C94C007A9F1040555D060684FF459
:1016800080364FF4A02738B1B04205D0B84203D01D
:10169000EB21EDA007F0F0F8F948001D0168C1F357
:1016A0008101012908D00068C0F3810002280AD115
:1016B000D9F80000400206D52868800334D5606858
:1016C0000028CCD030E06068B04203D1286840F4F4
:1016D00080300CE0B842286803D140F480202860B4
:1016E000F4E720F480302860286820F48020286007
:1016F000606860B1FFF718FD064604E0FFF714FDCF
:10170000801B64287ED828688003F7D50CE0FFF79B
:101710000BFD064605E000BFFFF706FD801B6428B1
:10172000F0D828688003F7D42078DFF85883800742
:101730004FF0000A56D5E06830B1012804D040F2DD
:101740001D11C1A007F098F820691F2804D94FF493
:101750008F71BDA007F090F8C94800E092E0001D2D
:10176000016811F00C0F08D00068C0F38100022856
:1017700010D1D9F8000040020CD42868800702D5A7
:10178000E06801287ED12868216920F0F80040EA4D
:10179000C10017E0E068B8B10120C8F80000FFF709
:1017A000C3FC064605E000BFFFF7BEFC801B022815
:1017B000A8D828688007F7D5286820F0F8012069A4
:1017C00041EAC00028600DE0C8F800A0FFF7ACFCBB
:1017D000064604E0FFF7A8FC801B022892D8286880
:1017E0008007F7D4207800072ED5A54EA64F606954
:1017F0007036D0B1012808D04FF4AF7192A007F035
:101800003BF800E04BE1606978B101203860FFF7F8
:101810008BFC074605E000BFFFF786FCC01B0228D3
:10182000C6D830688007F7D50EE0C7F800A0FFF7EC
:101830007BFC074605E000BFFFF776FCC01B0228D3
:10184000B6D830688007F7D42078400776D5A068EE
:10185000002740B1012806D0052804D04FF4C571F7
:1018600079A007F009F8DFF818B20BF13C0BDBF8B0
:101870000000C0000DD4DBF8001041F08051CBF81F
:10188000001000E038E1DBF80000012700F0805094
:1018900000907E4E3068C00511D4306840F48070EE
:1018A0003060FFF741FC009006E000BFFFF73CFC12
:1018B0000099401A022891D83068C005F6D5704EBC
:1018C000A0686C3601280FD00528306810D020F0B1
:1018D00001003060306820F004003060A068B8B1CA
:1018E000FFF722FC00900FE0306840F00100F4E7C1
:1018F00040F004003060F7E7FFF716FC0099411A4A
:1019000041F2883081428BD830688007F4D50EE0F0
:10191000FFF70AFC009007E0FFF706FC0099411A68
:1019200041F2883081428BD830688007F4D42FB1DF
:10193000DBF8001021F08051CBF80010A0690028DE
:1019400076D0012809D0022807D040F2CD113EA060
:1019500006F092FFA0690028F2D04948001D0068F7
:10196000C0F381000228A0696DD0022805D0C8F814
:1019700060A0FFF7D9FB044694E0E06938B1B0F508
:10198000800F04D04FF4EB712FA006F075FF206A92
:101990003F2804D940F2D7112BA006F06DFF606AF2
:1019A0003238B0F5BF7F04D94FF4EC7126A006F0B1
:1019B00063FFA06A02280AD0042808D0062806D0AF
:1019C000082804D040F2D9111FA006F055FFE06AA4
:1019D000801E0D2804D94FF4ED711BA006F04CFFBA
:1019E0004746C8F860A0FFF79FFB064605E000BF2A
:1019F000FFF79AFB801B022851D828688001F7D492
:101A0000D4E907010843A16A214A490802EB0141D0
:101A1000626A41EA8211084394F82C1040EA01619D
:101A2000C9F8001001203866FFF77EFB044606E087
:101A300064E000BFFFF778FB001B02282FD828685E
:101A40008001F7D55AE031E02E2E2F447269766579
:101A500072732F53544D3332463478785F48414C7B
:101A60005F4472697665722F5372632F73746D339E
:101A700032663478785F68616C5F7263632E6300EE
:101A80000438024000004742800E47420070004088
:101A90000000FFFFFFF748FB001B022802D90320CC
:101AA000BDE8F88F28688001F4D427E00128F7D03A
:101AB000D9F80000E26900F4800191421CD1226A49
:101AC00000F03F01914217D147F6C071626A0140B0
:101AD000B1EB821F10D1A26A4FF0FF3300F4403106
:101AE00003EB5202B1EB024F06D194F82C1000F038
:101AF0007060B0EB016F01D00120D1E70020CFE78B
:101B00004FF0E020016941F00201016170470000DF
:101B100070B504007ED08049206888420AD07F4991
:101B2000884207D07E49884204D04FF4A0717DA03E
:101B300006F0A2FE60684FF4827630B1B04204D065
:101B400040F2411177A006F097FEA06850B1B0F5C1
:101B5000806F07D0B0F5004F04D04FF4A17171A091
:101B600006F08AFEE068B0F5006F05D020B140F2C3
:101B700043116CA006F080FEA069B0F5007F08D08C
:101B800038B1B0F5802F04D04FF4A27165A006F0F3
:101B900073FEE06990B1082810D010280ED01828E4
:101BA0000CD020280AD0282808D0302806D0382881
:101BB00004D040F245115BA006F05EFE206A30B111
:101BC000802804D04FF4A37156A006F055FE606A39
:101BD000002548B3102806D040F2471151A006F066
:101BE0004BFE606A00B3E06990B1082810D010285D
:101BF0000ED018280CD020280AD0282808D0302849
:101C000006D0382804D040F2591146A006F034FE20
:101C1000256100E006E06561A56294F851000028A6
:101C200030D034E0012070BD206930B1022804D0EA
:101C30004FF4A5713BA006F01FFE606930B101288A
:101C400004D040F24B1137A006F016FE6068B04297
:101C500016D1E0690028DFD00828DDD01028DBD0BD
:101C60001828D9D02028D7D02828D5D03028D3D0AC
:101C70003828D1D040F24F112AA006F0FDFDCBE765
:101C8000E561C9E784F85050204600F067F802206B
:101C900084F851002068016821F040010160A088AB
:101CA000218900F4827001F404410843A18901F400
:101CB00000610843217C01F002010843217D01F00D
:101CC00001010843218B01F400710843217F01F0D9
:101CD0003801084394F8201001F080010843218D59
:101CE00001F40051084321680860A069042101EA59
:101CF000104094F8241001F0100108432168486056
:101D00002068C16921F40061C1616565012084F822
:101D10005100002070BD000000300140003800403C
:101D2000003C00402E2E2F447269766572732F534B
:101D3000544D3332463478785F48414C5F44726981
:101D40007665722F5372632F73746D3332663478F5
:101D5000785F68616C5F7370692E6300F0B587B05F
:101D6000044614216846FEF777FA1F4F23680022C5
:101D70001E490224032505261D48BB4213D11B4BD7
:101D800014331F6847F480571F601B6803F48053A7
:101D900005930B6843F002030B60096801F0020130
:101DA0000591382116E0134FBB421BD10F4B103366
:101DB0001F6847F480471F601B6803F48043059346
:101DC0000B6843F002030B60096801F00201059102
:101DD0004FF46041CDE9001402AB694683E864002A
:101DE000FEF792FF07B0F0BD0030014030380240EE
:101DF00000040240003800402DE9F84F04464068D6
:101E00000025984616460F464FF0040BB0F5827F2A
:101E100001D1A06888B194F85000012818D00120A1
:101E200084F85000FFF780F9814694F851004FF094
:101E3000000A01280ED0022582E084F851B0134632
:101E40000A462046CDF8008000F05EF9BDE8F88F24
:101E50000220FBE7002F72D0002E70D084F851B022
:101E6000C4F854A0A763A687E687C4F830A0A4F8F6
:101E700034A0A4F836A0C4F840A0C4F844A0A068D8
:101E8000B0F5004F09D12068016821F040010160E0
:101E90002068016821F480410160206801684906DA
:101EA00003D4016841F040010160E068D8B139E035
:101EB00020688168C90709D0007BA16B0870A06BFE
:101EC000401CA063E08F401EE0870CE0FFF72CF978
:101ED000A0EB0901414503D3B8F1FF3F03D036E041
:101EE000B8F1000F33D0E08F0028E1D11DE0206869
:101EF0008168C90709D0C068A16B0880A06B801CED
:101F0000A063E08F401EE0870CE0FFF70DF9A0EB27
:101F10000901414503D3B8F1FF3F03D017E0B8F101
:101F2000000F14D0E08F0028E1D14A4641462046F8
:101F300001F00CFE08B120206065606D00B1012544
:101F4000012084F8510084F850A028467EE703253C
:101F5000F6E700002DE9F84F044680681D46164656
:101F60008946002738B1B0F5004F04D04FF44271D4
:101F700057A006F081FC94F8500001280ED04FF0D5
:101F8000010B84F850B0FFF7CFF8804694F8510069
:101F90004FF0000A012804D0022793E00220BDE898
:101FA000F88FB9F1000F73D0002E71D0032084F8A0
:101FB0005100C4F854A0C4F83090A686E686C4F850
:101FC00038A0A4F83CA0A4F83EA0C4F844A0C4F8EB
:101FD00040A0A068B0F5004F09D12068016821F049
:101FE000400101602068016841F48041016020687F
:101FF0000168490603D4016841F040010160E068CE
:10200000B0F5006F606803D030B3012E24D041E0FA
:1020100008B1012E1CD1206B21680088C86006E041
:1020200020688168890709D5216B0988C160206B08
:10203000801C2063E08E401EE08609E0FFF774F804
:10204000A0EB0800A84202D3681C01D031E07DB3A8
:10205000E08E0028E4D120E0206B2168007808732E
:1020600006E020688168890709D5216B097801732A
:10207000206B401C2063E08E401EE0860AE0FFF7E4
:1020800053F8A0EB0800A84203D3681C02D010E06C
:1020900017E06DB1E08E0028E3D142462946204684
:1020A00001F082FD08B120206065A06818B106E04B
:1020B000FFE7032706E02068C16880680090606D34
:1020C00000B1012784F851B084F850A0384666E783
:1020D0002E2E2F447269766572732F53544D33320E
:1020E000463478785F48414C5F4472697665722F58
:1020F0005372632F73746D3332663478785F68611E
:102100006C5F7370692E63002DE9F84F04460A9ED8
:1021100080681D4692468B464FF00109002720B18A
:1021200040F27C4174A006F0A7FB94F8500001280F
:102130000ED0012084F85000FEF7F6FF804694F898
:102140005100616801280CD0B1F5827F07D102E00F
:102150000220BDE8F88FA16809B9042801D0022740
:10216000C2E0BBF1000F27D0BAF1000F24D01DB39D
:1021700094F85100042802D0052084F85100002072
:102180006065C4F838A0E587A587C4F830B0E58657
:10219000A5862064606420680168490603D401684C
:1021A00041F040010160E068B0F5006F606805D063
:1021B000F0B3012D46D07FE0012795E008B1012D55
:1021C00039D1206B21680088C860206B801C206397
:1021D000E08E401EE0862EE02068816889070FD5DA
:1021E000E18E69B1B9F1010F0AD1216B0988C16093
:1021F000206B801C2063E08E401EE0864FF00009BB
:1022000020688168C9070CD0E18F51B1C068A16B0B
:102210000880A06B801CA063E08F401EE0874FF019
:102220000109FEF781FFA0EB0800B04203D300E0F4
:1022300008E0701C50D1E08E0028CDD1E08F00283E
:10224000CAD13FE0206B216800780873206B401CE6
:102250002063E08E401EE0862EE0206881688907BA
:102260000FD5E18E69B1B9F1010F0AD1216B09785F
:102270000173206B401C2063E08E401EE0864FF00F
:10228000000920688168C9070CD0E18F51B1C0688E
:10229000A16B0870A06B401CA063E08F401EE0871C
:1022A0004FF00109FEF740FFA0EB0800B04202D357
:1022B000701C01D010E07EB1E08E0028CDD1E08FFF
:1022C0000028CAD142463146204601F06DFC28B1B3
:1022D00001272020606507E0032705E0A06818B902
:1022E0002068C16880680090012084F851000020B7
:1022F00084F8500038462CE72E2E2F4472697665FC
:1023000072732F53544D3332463478785F48414CC2
:102310005F4472697665722F5372632F73746D33E5
:1023200032663478785F68616C5F7370692E630021
:1023300070B515460E46040003D094F8490010B15C
:1023400007E0012070BD002084F84800204600F01E
:102350001DF804F108012068FEF70CFB3146A26865
:102360002068FEF7EBFBD4E901022946236BFEF758
:1023700075FA2168A06851F8202042F0010241F866
:102380002020012084F84900002070BDFEF782BCA7
:1023900010B5401EB0F1807F01D3012010BD4FF079
:1023A000E02460610F21601702F0D6FA0020A061DE
:1023B00007202061002010BD4FF0E020016921F0CE
:1023C0000201016170477047704700002DE9F05F1E
:1023D000044600683A4E3B4FDFF8EC80DFF8EC90A3
:1023E000DFF8ECA00D464FF0804BB04215D05845B9
:1023F00013D0B84211D040450FD048450DD04FEA18
:10240000B641884209D03349884206D0504504D0AD
:1024100040F2B17130A006F02FFA286890B1102870
:1024200010D020280ED030280CD040280AD05028B8
:1024300008D0602806D0702804D040F2B27126A0DF
:1024400006F01AFA6868802805D020B140F2B3710E
:1024500021A006F011FA94F83C0001282DD00122A9
:1024600084F83C20022084F83D00216848688B688D
:1024700020F0700C286840EA0C0048602068B042E8
:102480000FD058450DD0B8420BD0404509D0484533
:1024900007D0504505D01F49884202D01E498842C6
:1024A00004D1696823F080031943816084F83D20DA
:1024B000002084F83C00BDE8F09F0220FBE700000C
:1024C000000001400004004000080040000C0040F3
:1024D00000040140001400402E2E2F4472697665DE
:1024E00072732F53544D3332463478785F48414CE1
:1024F0005F4472697665722F5372632F73746D3304
:1025000032663478785F68616C5F74696D5F657896
:102510002E630000004001400018004010B5040088
:1025200058D03F49206888422BD0B0F1804F28D046
:102530003C49884225D03C49884222D03B498842C8
:102540001FD03B4988421CD03A49884219D03A49A9
:10255000884216D03949884213D03949884210D070
:10256000384988420DD0384988420AD037498842D4
:1025700007D03749884204D040F2131135A006F045
:102580007BF9A06860B110280AD0202808D0402824
:1025900006D0602804D04FF48A712EA006F06CF9A2
:1025A000206950B1B0F5807F07D0B0F5007F04D02E
:1025B00040F2151127A006F05FF9A06930B180281C
:1025C00004D04FF48B7123A006F056F994F83D0027
:1025D00010B107E0012010BD002084F83C00204627
:1025E00000F054F8022084F83D00211D206801F01D
:1025F000DFFD012084F8460084F83E0084F83F00A7
:1026000084F8400084F8410084F8420084F84300D4
:1026100084F8440084F8450084F83D00002010BD93
:10262000000001400004004000080040000C004091
:102630000010004000140040000401400040014030
:10264000004401400048014000180040001C0040C8
:10265000002000402E2E2F447269766572732F532E
:10266000544D3332463478785F48414C5F44726948
:102670007665722F5372632F73746D3332663478BC
:10268000785F68616C5F74696D2E630008B50068DF
:102690000B49884212D10B48016841F010010160DA
:1026A0000068002200F01000009005213620FEF79F
:1026B000CDFDBDE808403620FEF796BD08BD000000
:1026C00000100040403802402DE9F05F04460068E9
:1026D0002F4D304E304FDFF8C480DFF8C490DFF864
:1026E000C4A0DFF8C4B0A84226D0B0F1804F23D0F8
:1026F000B04221D0B8421FD040451DD04FEAB5416D
:10270000884219D02949884216D0484514D05045EE
:1027100012D0274988420FD0264988420CD058450C
:102720000AD02549884207D02449884204D040F283
:10273000CF1123A006F0A0F894F83D00012802D0A4
:102740000120BDE8F09F022084F83D002068C168A8
:1027500041F00101C1602068A8420ED0B0F1804F65
:102760000BD0B04209D0B84207D0404505D048450B
:1027700003D0504501D0584504D1816801F00701CC
:10278000062903D0016841F0010101600020D8E76B
:10279000000001400004004000080040000C004020
:1027A00000040140004001400018004000140040B7
:1027B0000044014000480140001C0040002000404F
:1027C0002E2E2F447269766572732F53544D333217
:1027D000463478785F48414C5F4472697665722F61
:1027E0005372632F73746D3332663478785F686127
:1027F0006C5F74696D2E6300704770B504460068A5
:1028000001694FF00005C943890715D4C168C94360
:10281000890711D4E91E01610120207720688069B1
:102820008007204602D0FFF7E7FF04E000F098F8A9
:10283000204600F096F8257720680169C9434907CA
:1028400017D4C168C943490713D46FF0040101616B
:10285000022020772068806910F4407F204602D053
:10286000FFF7CAFF04E000F07BF8204600F079F89B
:10287000257720680169C943090716D4C168C9438F
:10288000090712D46FF00801016104202077206845
:10289000C0698007204602D0FFF7AEFF04E000F0D9
:1028A0005FF8204600F05DF8257720680169C9438C
:1028B000C90617D4C168C943C90613D46FF0100103
:1028C0000161082020772068C06910F4407F20460D
:1028D00002D0FFF791FF04E000F042F8204600F03C
:1028E00040F8257720680169C943C90708D1C16844
:1028F000C943C90704D1891E0161204600F032F89E
:1029000020680169C943090609D4C168C943090699
:1029100005D46FF0800101612046FFF754FD206867
:102920000169C943490609D4C168C943490605D4A8
:102930006FF040010161204600F034F82068016921
:10294000C94389060BD4C168C943890607D46FF00F
:10295000200101612046BDE87040FFF735BD70BD24
:102960007047704710B50C4900680968884211D15A
:102970000A484188491C89B24180C82905D30021F1
:1029800041800748816801208847BDE81040052044
:1029900026F016B810BD00004004002044000020BE
:1029A000880000207047000070B5040023D0A069A3
:1029B0003B4900283B4A3C4B3C4D20681DD0884297
:1029C0000CD090420AD0984208D0A84206D040F2DB
:1029D000731137A005F050FFA06908B3A069B0F5E6
:1029E000807F1DD0B0F5007F1AD0B0F5407F17D0A2
:1029F0004FF4BA7111E0012070BD884210D09042AE
:102A00000ED098420CD03949884209D038498842C2
:102A100006D0A84204D04FF4BC7125A005F02CFFCD
:102A2000A06838B1B0F5805F04D04FF4BD7120A02C
:102A300005F022FFE06938B1B0F5004F04D040F254
:102A40007B111BA005F018FF94F83D00002520B96C
:102A500084F83C50204600F04DF8242084F83D00D6
:102A60002068C16821F40051C160204601F056FE83
:102A70002068016921F4904101612068416921F0D9
:102A80002A0141612068C16841F40051C160256498
:102A9000202084F83D0084F83E00002070BD000036
:102AA0000010014000440040004800400014014074
:102AB0002E2E2F447269766572732F53544D333224
:102AC000463478785F48414C5F4472697665722F6E
:102AD0005372632F73746D3332663478785F686134
:102AE0006C5F756172742E6300000000004C004042
:102AF0000050004010B586B0044614216846FDF72A
:102B0000ABFB14492068884221D113480021026898
:102B100042F010020260006800F0100005900E48BC
:102B20001438026842F001020260006800F00100FF
:102B300005904FF4C06000900220CDE90101032010
:102B400003900720049069460448FEF7DDF806B0BC
:102B500010BD000000100140443802400000024057
:102B60002DE9F843044690F83D001F4616460D46F1
:102B700020284CD1C5B1BEB194F83C00012846D004
:102B8000012084F83C004FF00008C4F84080212068
:102B900084F83D00FEF7C8FAA6848146E684A06862
:102BA000B0F5805F03D004E00120BDE8F883206920
:102BB00028B12E465FF0000584F83C800EE0002628
:102BC000FAE78021204601F079FEA0B9AEB116F8EF
:102BD000010B21684860E08C401EE084E08C4B468D
:102BE0004FF0000200970028EBD14FF04001204643
:102BF00001F064FE30B10320D7E735F8020BC0F3D3
:102C00000800E6E7202084F83D000020CDE7022000
:102C1000CBE7FEE72DE9FF4F804600240320A0EB21
:102C2000420085B00F4615B20FFA80FADFF87891AE
:102C3000B4E01298F0B3264652E000BF08EB04005F
:102C4000039007EB060BD9F828301FFA8BF180B2FE
:102C5000089A9847A8EB04000290D9F828301FFA88
:102C60008BF180B2089A98473819019081B2A8EB8D
:102C7000060BD9F828301FFA8BF0089A9847381BB2
:102C8000009081B2D9F828301FFA8BF0089A984743
:102C90000298A7EB060BD9F828301FFA8BF180B207
:102CA000089A984703981FFA8BF180B2D9F8283018
:102CB000089A00E017E09847009808EB060B81B2ED
:102CC000D9F828301FFA8BF0089A98470198D9F85C
:102CD000283081B21FFA8BF0089A9847761C36B2DA
:102CE000AE42ABDD47E008EB0400039007EB050BB9
:102CF000D9F828301FFA8BF180B24E46089A9847CF
:102D0000A8EB04000290B36A1FFA8BF180B2089A14
:102D100098473819019081B2A8EB050BB36A1FFAE6
:102D20008BF0089A9847381B009081B2B36A1FFA5B
:102D30008BF0089A98470298A7EB050BB36A1FFA25
:102D40008BF180B2089A98470398B36A1FFA8BF107
:102D500080B2089A9847009808EB050B81B2B36AD5
:102D60001FFA8BF0089A98470198B36A81B21FFA4C
:102D70008BF0089A9847641C24B2BAF1000F05DA68
:102D80000AEB8400801D0FFA80FA07E0611B0AEB52
:102D900081000A306D1E0FFA80FA2DB2AC427FF727
:102DA00048AF09B0BDE8F08F500000202DE9FE4F7C
:102DB000121A16B2CDE900105A1A4FF00008474611
:102DC00015B24FF0FF30002E02DD4FF0010102E09E
:102DD00003D14FF000018A4603E0C6F100018246AC
:102DE0000EB2002D02DD4FF0010002E003D14FF0E2
:102DF0000000834603E08346C5F1000005B2AE4201
:102E000001DD344600E02C46601C4FF000090290C2
:102E100021E013480C9A836ADDE90010984708EB1B
:102E200006000FFA80F8781907B2A04507DDA8EB75
:102E300004000FFA80F80198504480B20190A74234
:102E400005DD381B07B20098584480B2009009F1A4
:102E500001001FFA80F902998945DADDBDE8FE8F8D
:102E6000500000202DE9F84F8946DDE90A41074668
:102E700017489A460129009425D0BE18761E804630
:102E80004B46C56AB2B219463846A84709EB0A054F
:102E900000946D1ED8F82CC0ABB2B2B2B0B24946A5
:102EA000E047B0B20094D8F82C60ABB2A9B23A4671
:102EB000B04700943A46D8F82C40A9B24B46104689
:102EC000A047BDE8F88F846849463846F8E7000017
:102ED000500000202DE9F0411D4690460F46044663
:102EE000069E00F00FF9094B791904EB080208E07F
:102EF000002002E01E80401C80B28142FAD8641C8F
:102F0000A4B2A242F4D8BDE8F0810000000008603D
:102F100010B50024F0281AD2B1F5A07F17D20123F2
:102F20001A4600F0EFF84FF0C0412E200880094803
:102F300001880188028800886FF30A01800A41EA4B
:102F4000401040EAD224214603A001F0F5FC2046BF
:102F500010BD000000000860546865205069786565
:102F60006C20636F6C6F72206973203078252E346B
:102F7000580D0A002DE9F84F4FF0C0450420288075
:102F80004D4C20882088208800262188C0B2C9B2F4
:102F900006EB0020DFF824A1014449A0CAF8001084
:102FA00001F0CAFC11272F807820FDF761FE4FF059
:102FB0003A09A5F800900520208036222A80D020EA
:102FC0002080B22129800C2121802180268033217C
:102FD00021802180B721298035212180BB212980B2
:102FE00028212180C02129802C212180C2212980F3
:102FF00001232380C32129800B212180C4262E8018
:10300000202626804FF0C60CA5F800C04FF00F0C0C
:10301000A4F800C028804FF0A408A4F800804FF066
:10302000A108A4F800804FF0E008A5F800802080F7
:10303000238008232380A4F800C027802A2323802C
:1030400022805522228044222280A4F800902180F0
:103050000622228027802680E1222A8020800220EA
:103060002080072020800A202080218018202080B6
:1030700034202080432020804A2020802B20208064
:103080001B2020801C202080222020801F202080C8
:1030900029202880012202211148FEF70FF848F26A
:1030A00030400090F0220021DAF808404FF4A0737D
:1030B0000846A047BDE8F88F0000086050000020D7
:1030C000546865204944206F6620544654204C4380
:1030D00044206973203078252E36580D0A0D0A00D9
:1030E0000004024010B51446F02808D2B1F5A07FC4
:1030F00005D201231A4600F005F80148048010BDEE
:103100000000086070B54FF0C0452A242C800E4C9A
:10311000060A2680C6B226801044401EC0F307224D
:103120002280C0B220802B202880080A2080C8B2CC
:103130002080C818401EC0F307212180C0B2208023
:103140002C20288070BD0000000008602DE9F05F91
:103150008146DDE90A50DFF8E8A01C4610280FD0B0
:10316000182806D0BDE8F05F40F2751135A005F0D3
:1031700083BB4FF00F0C00201778DFF8E4B031E08C
:10318000DFF8E0B017784FF00F0C002000EB0016CE
:103190001BF81680B84520D10BEB460692F801804B
:1031A0007378434519D110231A464846FFF7AAFF02
:1031B0000020534631188A780021D70701D01D809E
:1031C00000E01C80491C5208C9B20829F5D3401CF4
:1031D000C0B22028EED3BDE8F09F401C80B260450D
:1031E000D4D3F8E700EB800303EB40161BF81680FE
:1031F000B8451FD10BEB460692F801807378434522
:1032000018D118231A464846FFF77CFF0020534682
:1032100031188A780021D70701D01D8000E01C807A
:10322000491C5208C9B20829F5D3401CC0B248282D
:10323000EED3D0E7401C80B26045D3D3CBE700008B
:10324000000008602E2E5C4D794170706C696361DE
:1032500074696F6E5C5446545F4C43442E630000A7
:1032600076F5020878F302082DE9FF4F83B0164681
:10327000DDE911780D4604464FF4A07BDFF8ACA0E1
:10328000DDF840904BE07F2A17D9E019F02802D9E9
:103290000024E81985B2E819584501D900242546CB
:1032A000CDE90097DAF814C0324629462046069B3D
:1032B000E047E01984B2B61C31E00D2A03D00020AB
:1032C0000A2A0CD000E00120002108430DD016F896
:1032D000010C4FF000047F2803D9E81903E0012115
:1032E000F3E705EB080085B218E004EB5800F0287E
:1032F00003D905EB0800002485B205EB080058450A
:1033000001D900242546CDE90098DAF80CC02946F9
:103310002046069BE04704EB580084B2761C3278C6
:10332000002AB0D107B0BDE8F08F000050000020A7
:103330002DE9F0471C46DDE90857164689468246C6
:10334000102F06D0182F04D040F2011129A005F04B
:1033500093FA203EDFF8B880F6B2102F14D0182F61
:103360002DD118230C2249465046FFF7CBFE294A9F
:1033700006EB460102EB011600204146335C0022B9
:10338000DF071ED00D801DE010230822494650465D
:10339000FFF7B8FE2049002001EB06164346325CD9
:1033A0000021D70701D01D8000E01C80491C520875
:1033B000C9B20829F5D3401CC0B21028EFD3BDE82C
:1033C000F0870C80521C5B08D2B2082AD8D332187E
:1033D00053780022DF0701D00D8000E00C80521CE2
:1033E0005B08D2B2042AF5D3801CC0B23028C5D302
:1033F000E5E700002E2E5C4D794170706C696361C9
:1034000074696F6E5C5446545F4C43442E630000F5
:1034100000000860A8E10208B8DB020870B51E468B
:1034200014460025FFF76EFE00200649744304E0B1
:103430002A18128852BA0A80801CB0EB440FF7D3C6
:1034400070BD0000000008602DE9FC479946DDE9E9
:103450000A8517460E4604461AE000BF04EB5500E5
:10346000F02802D90024701986B27019B0F5A07F37
:1034700001D9002426460948CDE90085D0F80CC0C2
:103480004B4631462046E04704EB550084B27F1C92
:103490003A78002AE2D1BDE8FC8700005000002005
:1034A000054A012805D0022805D180211046FDF7E4
:1034B000D5BD4021FAE7704700000240064B0128C5
:1034C00006D0022807D1012280211846FDF7F6BD5B
:1034D00001224021F9E7704700000240064B012815
:1034E00006D0022807D1002280211846FDF7E6BD4C
:1034F00000224021F9E770470000024010B588B073
:103500001C216846FCF7A8FE214822494FF02044C0
:10351000C0E90041002181601022C160C0E90412AD
:103520008161C16113020162C0E90913C1620163D3
:10353000416381634164022000900F200523CDE99F
:103540000103CDE903021120CDE9050100226946FE
:103550000F48FEF7EDFE08B1FDF77DF9D4F81C0128
:1035600020F00F00C4F81C01D4F81C0120F4706096
:10357000C4F81C01D4F81C0140F00300C4F81C017D
:10358000D4F81C0140F40070C4F81C0108B010BD50
:1035900040030020040100A02DE9F04786B014216B
:1035A0006846FCF759FE50480024016841F01001BC
:1035B0000160016801F010010591016841F004010A
:1035C0000160016801F004010591016841F080018A
:1035D0000160016801F080010591016841F001017D
:1035E0000160016801F001010591016841F00201EB
:1035F0000160016801F002010591016841F00801D4
:1036000001600068DFF8E49000F0080005900122F6
:10361000C0214846FDF752FDDFF8D4A041F2030770
:10362000002239465046FDF749FD67200325CDE9C4
:103630000005DFF8C080694602944046FDF764FB50
:10364000182001268DE8510069464046FDF75CFBD5
:103650004FF6DF70CDE90005DFF89C8069460294E3
:103660004046FDF751FB02200096CDE90140694636
:103670004846FDF749FB49F63E10CDE9000569468D
:1036800002944846FDF740FBC0200090CDE901645C
:10369000694648460394FDF737FB202000904FF41D
:1036A0008810CDE9010469464046FDF72DFB0097DF
:1036B000CDE90164694650460394FDF725FB40F6C9
:1036C000C470CDE90005694602945046FDF71CFB25
:1036D00041F64C00CDE90005694602940748FDF724
:1036E00013FB06B0BDE8F08730380240000002400E
:1036F000000402400010024000080240000C02409A
:103700000F4810B50D4901604FF4827141600021EE
:103710008160C1604FF400720161C0E90512C161AE
:103720000162416281620A21C162FEF7F1F900285B
:1037300003D0BDE81040FDF78EB810BD0030014049
:1037400090030020104810B50E4901604FF48271BB
:10375000416000218160C1604FF400720161C0E9E5
:1037600005123822C0E90721416281620A21C16243
:10377000FEF7CEF9002803D0BDE81040FDF76BB886
:1037800010BD000000380040E80300201CB50024F4
:103790000F4800940D49019401605321C0E90114C0
:1037A00041F28731C16080218161FEF7B7FE08B127
:1037B000FDF751F80094694605480194FEF706FEAE
:1037C000002801D0FDF747F81CBD000000100040A4
:1037D000400400200C4810B50A4901604FF4E13163
:1037E0004160002181600C22C160C0E90412816146
:1037F000C161FFF7D9F8002803D0BDE81040FDF7FC
:103800002AB810BD0010014088040020FEE7FEE742
:103810002DE9F0471D4D4E1E0C468046471EAB6AF3
:103820009146B1B2B8B29847AB6AB1B24A46404687
:103830009847B1B208F10106AB6AB0B24A46984760
:10384000AB6AB8B24A4621469847AB6A4A46214617
:1038500040469847AB6AB0B24A4621469847641C36
:10386000B4F5887F10D2AB6AA1B2B8B24A46984785
:10387000AB6AA1B24A4640469847A1B2B0B24A46A6
:10388000AB6ABDE8F0471847BDE8F087500000205C
:103890002DE9FC47574C48F230470097F0220021B1
:1038A000A5684FF4A0730846A8474FF6FF78CDF8F7
:1038B0000080F0224FF488790021A5684B46084625
:1038C000A8474FF4784500951823A6681A4649463C
:1038D0000020B0474FF4FC6000901823A6681A46F9
:1038E00049461846B0471F2000901823A6681A467C
:1038F00049463020B0474FF6E07000901823A66884
:103900001A4649464820B0474FF61F00009018233A
:10391000A6681A4649466020B04740F2FF70009002
:103920001823A6681A4649467820B0474AF245103F
:1039300000901823A6681A4649469020B04748F2DE
:103940001F4000901823A6681A464946A820B04791
:1039500000971823A6681A464946C020B0470020A1
:1039600000901823A6681A464946D820B047182662
:10397000CDE900564FF49479D4F810C03B461EA20E
:1039800049460020E047CDE90056D4F810C03B4638
:103990001AA249461820E047CDE90056D4F810C0D5
:1039A0003B4618A249466020E047CDE9005626690B
:1039B0003B4612A249467820B047134818231A46BE
:1039C00040890090A6684946C020B047CDF80080E5
:1039D0001823A6681A464946D820B0471020CDE9DA
:1039E00000502469434609A24FF49671DC20A04799
:1039F000BDE8FC8750000020583A00002D2D2D2DE9
:103A000000000000593A000094000020434C0000E0
:103A10007047000010B52DED028B18A11BA000F01F
:103A20008BFF9FED228B23A053EC182B00F084FF1B
:103A300053EC182B1FA000F07FFF284840688047F8
:103A4000274C6068804719F087F91FF07FFF1FF04F
:103A5000A5FF0C226369002122489847214800787D
:103A6000592804D0204CA06980470028FBD0BDEC29
:103A7000028BBDE8104013F035BF00004C56474C98
:103A80002050726F6A656374000000006D61696E9A
:103A900020696E666F3A50726F6A656374204E617A
:103AA0006D652069732025730D0A00000000000079
:103AB0000000F03F6D61696E20696E666F3A536F6A
:103AC0006674576172655F56657273696F6E2069BF
:103AD000732056252E31660D0A0000004400002098
:103AE00020000020CC0400209400002010B50E4CD3
:103AF000E0698047012800D120700C4C0821204645
:103B0000FDF780FA60B91420FDF7B2F808212046CD
:103B1000FDF778FA0648C068804706A000F00CFF61
:103B2000BDE8104023F0EEBA9400002000100240DF
:103B3000200000204572617365546F74616C2069C8
:103B400073206F6B21210D0A00000000F8B50446B8
:103B500040684FF48273984221D1A0684FF4806589
:103B6000B0F5004F01D0A8420AD12068066826F0BF
:103B7000400606606068984211D1A068A8420ED045
:103B800000920B4600228021204600F059FA0028BE
:103B900004D0606D40F0200060650320F8BD009205
:103BA0000B4600220121EFE738B504461248134BBB
:103BB0000068B0FBF3F04FF47A73584300906068EC
:103BC000B0F5827F0DD10B46009200228021204665
:103BD00000F036FA70B1606D40F02000606503209F
:103BE00038BD009830B1401E009020688068C04306
:103BF0000006F6D5002038BD1400002000366E0106
:103C000070B5044600F020F900F04CF90E4D00228A
:103C100001212846FDF752FA202000F037F9C4F3BD
:103C2000074000F033F9C4F3072000F02FF9E0B2A9
:103C300000F02CF9012211462846FDF73FFABDE8B5
:103C4000704000F001B900000004024010B500F01F
:103C5000FBF800F027F9094C002201212046FDF76E
:103C60002DFAC72000F012F9012211462046FDF777
:103C700025FABDE8104000F0E7B80000000402405B
:103C800008B50A23012269460448FEF7B5F810B1C9
:103C9000FF208DF800009DF8000008BD9003002073
:103CA0002DE9F04100F0D0F8194E002201213046F4
:103CB000FDF704FA9F2000F0E9F8FFF7E1FF054661
:103CC000FFF7DEFF0446FFF7DBFF07460122114640
:103CD0003046FDF7F3F9280400EB04200D4CC11920
:103CE0000DA0216000F028FE14492068401805D07E
:103CF000022805D0032805D011A004E015A002E099
:103D000021A000E02DA0BDE8F04100F015BE0000AC
:103D10000004024020000020546865204A454445C4
:103D200043204944206F662053504920666C6173DC
:103D300068206973203078252E365800EBBF10FFBD
:103D4000466C617368D0BEC6ACD0CDBAC5CEB4D611
:103D5000AA0D0A00466C617368D0BEC6ACD0CDBA5D
:103D6000C5CEAA5732355131364A562D49512F4AC0
:103D700051A3AC2031364D2D626974202F324D2D68
:103D8000627974650D0A0000466C617368D0BEC626
:103D9000ACD0CDBAC5CEAA5732355136344A562D9D
:103DA00049512F4A51A3AC2036344D2D62697420FD
:103DB0002F384D2D627974650D0A0000466C6173D1
:103DC00068D0BEC6ACD0CDBAC5CEAA5732355131B7
:103DD00032384A562D49512F4A51A3AC3132384D11
:103DE0002D6269742F31364D2D627974650D0A008C
:103DF0002DE9F04114460D46064600F025F8114F16
:103E0000002201213846FDF759F9032000F03EF861
:103E1000C5F3074000F03AF8C5F3072000F036F884
:103E2000E8B200F033F803E0FFF72AFF06F8010BD1
:103E3000641EF9D23846BDE8F04101221146FDF773
:103E40003DB900000004024070B50E4D0022012172
:103E50002846FDF733F9052000F018F80A4C002039
:103E600020804FF4FA6600BFFFF70AFF2188B142B5
:103E700001D2C007F8D12846BDE8704001221146A2
:103E8000FDF71CB9000402404400002008B50A23D5
:103E90008DF80000012269460148FEF75BF808BD75
:103EA0009003002010B5084C002201212046FDF7A8
:103EB00005F90620FFF7EAFF20460122BDE8104081
:103EC0001146FDF7FBB80000000402402DE9F04167
:103ED00014460D460646FFF7B7FFFFF7E3FF154F01
:103EE000002201213846FDF7E9F80220FFF7CEFF56
:103EF000C5F30740FFF7CAFFC5F30720FFF7C6FF6A
:103F0000E8B2FFF7C3FFB4F5807F07D90AA000F03D
:103F100013FDFF243078FFF7B9FF761C641EA4B2AE
:103F2000F8D2012211463846FDF7C8F8BDE8F04145
:103F3000FFF78ABF000402404572726F723A204652
:103F40006C617368C3BFB4CED0B4C8EBCAFDBEDD2C
:103F5000B2BBC4DCB3ACB9FD323536D7D6BDDAA3BB
:103F6000A10A00002DE9F05F8246140A0D4611F007
:103F7000FF00C0F10001164602F0FF09CFB213D0D6
:103F8000E8B24042C0B20AEB000805EB000B0CB3EC
:103F90003A4629465046FFF799FFF01B5C46050A52
:103FA000C6B24FF480772DE0B4B14FF48076641E32
:103FB00009D3324629465046FFF788FF0AF5807A32
:103FC00005F58075F3E7B9F1000026D002462946D1
:103FD00050461EE0B94501D892B2F8E73A46294664
:103FE0005046FFF773FFA9EB07024046594692B2CD
:103FF0000FE03A4621464046FFF768FF04F580741B
:1040000008F580786D1EF4D2002E06D03246214687
:104010004046BDE8F05FFFF759BFBDE8F09F0000E4
:1040200008B50A23012269460448FDF7E5FE10B1F0
:10403000FF208DF800009DF8000008BDE803002077
:104040002DE9F8431E46914688460446089DFDF733
:104050006BF8401B351AFDF767F8074625480068DE
:10406000C0F3CB30684338E0701C37D0FDF75CF804
:10407000C01BA84203D215B1009860B32CE02068A1
:10408000416821F0E00141606068B0F5827F0BD1AA
:10409000A068B0F5004F02D0B0F5806F04D1206861
:1040A000016821F040010160A06AB0F5005F09D10C
:1040B0002068016821F4005101602068016841F422
:1040C00000510160012084F85100002084F8500064
:1040D0000320BDE8F8830025401E00902068816819
:1040E00038EA010004D000214945BDD10020F0E7A5
:1040F0000121F9E7140000207047FDF71BB800000C
:1041000030B593B030216846FCF7A6F814210CA80E
:10411000FCF7A2F81D480025016841F080510160BC
:10412000006800F0805011901948016841F4804106
:1041300001600068022400F480401190012000908A
:10414000000401908001CDE9064008AA0420A821BE
:1041500082E813000B906846FDF77EFA08B172B64C
:10416000FEE70CA90F2081E831004FF4A0500F901A
:104170004FF48050109005210CA8FDF7F7F80028A7
:1041800001D072B6FEE713B030BD000040380240E7
:10419000007000400248016841F4700101607047FE
:1041A00088ED00E00148FEF728BB00004004002035
:1041B000F0B50268254C264D264E274F274B4FF071
:1041C000804CA04209D0604507D0A84205D0B0423B
:1041D00003D0B84201D0984204D122F0700E4A6850
:1041E00042EA0E02A0421BD0604519D0A84217D067
:1041F000B04215D0B84213D0984211D0184DA84201
:104200000ED0184DA8420BD0174DA84208D0174D1C
:10421000A84205D0164DA84202D0164DA84203D19F
:1042200022F44075CA682A434D6922F080022A436D
:1042300002608A68C2620A688262A04201D0984223
:1042400001D10969016301214161F0BD0000014014
:104250000004004000080040000C00400004014041
:104260000040014000440140004801400018004067
:10427000001C0040002000400148FEF725BA000065
:10428000400400202DE9F04794B01422644905A8A9
:10429000FBF7C9FF0020634C00904FF4A073A568A2
:1042A000F0220146A847002505AE02AF0DF14008F7
:1042B0004FF4487906EB850008EB4503418807EB8E
:1042C000450236F8250000F0DDF84846FCF7D0FC42
:1042D0006D1CEDB2052DEDD3BDF80800BDF80A1038
:1042E000BDF810C008444708BDF84000BDF84610AE
:1042F000182508444FEA5008BDF80C00BDF80E1010
:104300004FF4784608444308BDF84200BDF8441015
:104310004FF47A7A08444208F818410808EB020082
:1043200040088C4508D8A1EB0C0C07E03EA000F03B
:1043300003FBCDE9006519E0ACEB010CBCF1640FA7
:10434000F4DCBDF848C04FF4FC69844505D8A0EB07
:104350000C0CBCF1640FE9DC15E0ACEB0006642E3C
:1043600011DD31A000F0E8FACDE9009524690023C1
:10437000A02131A21820A0475046FCF779FC00206C
:1043800014B0BDE8F087DB1B00EE103A9FED2E1A4B
:10439000A2EB0802B8EEC00ADFED2D1A2B4BC1EEDE
:1043A000000A00EE102AB8EEC01A81EE810A01EE72
:1043B000101AC3ED010AF8EE411A9FED261A10EE0D
:1043C000A11AFCEEC10A83ED020A10EE901A00EE6B
:1043D000900A5970B8EE601ADFED1F0A50EE010A1C
:1043E000BCEEE00A10EE100A9870592018701BA05D
:1043F00000F0A2FACDE9009524690023A0211BA2B8
:104400000C20A0475046FCF733FC1D4C0020A1684F
:1044100088470C22236900210C4898470120AFE708
:10442000CCF9020850000020E6A0A1E58786E5A4AB
:10443000B1E8B4A50D0A000043616C696272617451
:1044400065204661696C000000004843CC040020F0
:1044500000008C430000F04200002043E6A0A1E5EC
:104460008786E68890E58A9F0D0A000043616C69A3
:104470006272617465205375636365737300000035
:10448000200000202DE9F84F00260446184F9246E0
:104490004FF478480A3082B2CDF800809946A4F1F2
:1044A0000A00D7F82CC00D4680B20B46E04705F154
:1044B0000A000A3DA9B2CDF8008083B22246FD6A07
:1044C0001046A8474946504600F07AF80028F9D02F
:1044D0003046761CF6B20A28F4D900200090BC6859
:1044E0004FF4A073F0220146A0470120BDE8F88FE9
:1044F000500000202DE9FF470026DFF8BC9007465A
:1045000034464FF480586D46002241464846FCF739
:10451000D5FD8DF80C700A23012203A92748FDF769
:1045200019FD0020401CC0B26428FBD3FFF778FDC2
:1045300025F8140020F0800025F814004FF6FF71D4
:1045400001EA002025F81400FFF76AFD35F8141081
:104550000122084480B225F81400C00825F8140090
:1045600041464846FCF7AAFD641CE4B2052CCBD3B7
:104570000020421CD1B20BE035F8103035F8114064
:10458000A34203D225F8104025F81130491CC9B2C6
:104590000529F1D3D0B20428EBD3012035F810104F
:1045A000401CC0B20E440428F8D30320B6FBF0F040
:1045B00004B080B2BDE8F08700040240E8030020A8
:1045C0002DE9F04107468846D020FFF793FF0546C6
:1045D0009020FFF78FFF0646D020FFF78BFF0446A1
:1045E0009020FFF787FFA54201D3291B00E0611B44
:1045F0008AB2864201D3311A00E0811B89B20A2AAD
:1046000011D80A290FD8291949083044398040089F
:10461000A8F800003A8840F67561643A8A4202D2EE
:104620006438884202D30020BDE8F0810120FBE716
:104630002DE9F041374C211D6269A01C90470028EC
:1046400055D06088344D00EE100A6269D5ED010A3C
:10465000B8EE400A697820EE200AD5ED020ABCEED9
:10466000C00A10EE100A401A87B2A088A97800EE9E
:10467000100AB8EE400A20EE200ABCEEC00A10EE86
:10468000100A401A86B2211DA01C904700282ED087
:104690006088D5ED010A00EE100A6978AA78B8EEB4
:1046A000400A20EE200AD5ED020ABCEEC00A10EE48
:1046B000100A401AA18880B200EE101AB8EE400A23
:1046C00020EE200ABCEEC00A10EE101A891A89B238
:1046D000874201D33A1A00E0C21B022A06DC8E424E
:1046E00001D3721A00E08A1B022A02DD0020BDE815
:1046F000F0813844400831444908E080EF222181AC
:10470000EF2800D9E280B1F5A07F00D3E28001203C
:10471000EDE7000094000020CC04002070B50446B2
:1047200040685449884204D940F6616152A004F0BF
:10473000A3F8E06838B1B0F5005F04D040F66261DC
:104740004DA004F099F8206950B1B0F5806F07D002
:10475000B0F5C06F04D040F6636147A004F08CF858
:1047600060694FF6F371084200D120B940F66461E8
:1047700041A004F081F820680169E26821F4405109
:10478000114301612169A068E2690843616911432D
:1047900022680843D16849F20C6399430143D16010
:1047A00020684169A26921F4407111434161414986
:1047B0002068884202D04049884202D1FCF70CFFB1
:1047C00001E0FCF7F9FEE269002319216425322695
:1047D000B2F5004F626828D0A0FB0101930F920050
:1047E000FBF7F0FC0146B0FBF5F06FF01802504308
:1047F00001EB800006EB0010B0FBF5F000F0F002DA
:10480000B1FBF5F002EB0012B1FBF5F06FF018030D
:10481000584301EB800006EB0010B0FBF5F000F010
:104820000F0021681044886070BDA0FB0101921840
:104830005B41FBF7C7FC0146B0FBF5F00201B1FBA1
:10484000F5F06FF01803584301EB800006EBC00051
:10485000B0FBF5F000F0F80002EB4002B1FBF5F020
:10486000584301EB800006EBC000B0FBF5F000F010
:104870000700D6E7A037A0002E2E2F447269766578
:1048800072732F53544D3332463478785F48414C1D
:104890005F4472697665722F5372632F73746D3340
:1048A00032663478785F68616C5F756172742E630C
:1048B0000000000000100140001401402DE9F0410B
:1048C000984617460E460446069D27E0681C25D0EC
:1048D0002DB1FCF729FCA0EB0800A8421ED92068E6
:1048E0000C3050E8001F21F4D07140E80012002A7B
:1048F000F5D12068143050E8001F21F0010140E894
:104900000012002AF5D1202084F83D0084F83E00F2
:10491000002084F83C000320BDE8F0812068006896
:1049200036EA000004D00020B842CFD00020F3E7E0
:104930000120F9E7FEE700000FB4054B10B503A90D
:10494000044A029803F020F810BC5DF814FB000044
:1049500005FD00083C0300200907090E002804DBC0
:1049600000F1E02080F80014704700F00F0000F123
:10497000E02080F8141D704702E008C8121F08C12B
:10498000002AFAD170477047002001E001C1121FD0
:10499000002AFBD1704770B5044600256FF02F0642
:1049A00008E02068411C2160007805EB850106EBDA
:1049B000410145182068007800F0C6F80028F0D1C1
:1049C000284670BD2DE9FF5F82B00021DDE904308B
:1049D000020DDDF840B0034318D044F61050A2F2A7
:1049E000FF3242431514119801281FD0A5EB0B008C
:1049F000401C5FEA000A4FF000064E4FDFF8389186
:104A0000B046504615D5CAF1000413E011980124B0
:104A10004AA3012801D16FEA0B010298119AC0E95B
:104A20000031C0E9024206B0BDE8F09FCBF10000C2
:104A3000DFE704460021404A491842EB0450CDE923
:104A4000001012E0E00707D032463B464046494698
:104A5000FBF720FD8046894632463B461046194604
:104A6000FBF718FD06460F466410002CEAD1DDE97D
:104A70000401DDE90023BAF1000F06DAFBF70AFDB5
:104A800042464B46FBF706FD05E0FBF775FD424647
:104A90004B46FBF771FD04460E460022284BFBF700
:104AA000F3FD03D84FF0FF30014607E00022254B0D
:104AB00020463146FBF747FCFBF7CDFD102409E00B
:104AC000002C0ADB0A220023FBF77CFB039B30321D
:104AD0001A55641E50EA0102F2D1641C039AC4F113
:104AE00011031444119A012A03D0012208430DD165
:104AF0000AE0084304D000204FF0110B119072E738
:104B0000A3EB0B056D1E0DE05B4504DD4FF00002CD
:104B100005F1010504E003DA4FF00002A5F10105FB
:104B2000002AECD002981199C0E90231C0E9004591
:104B300079E70000000014400000F03F3000000062
:104B40000000F0430000E03F3038092801D8012080
:104B5000704700207047000010B54421094801F05B
:104B600030FA23F023FF084C0023042260601E214A
:104B7000064822F02DFAA06003F0F2FC002020701D
:104B800010BD000014060020240100201986000832
:104B90002DE9F04100251C4688460646152A3BD2E1
:104BA000DFE802F00B1B1D2E3744535C5E676A7909
:104BB000878999A6ABB0B5BACD0030460FF08EF913
:104BC000054640460FF08AF9014605EBD5704010C6
:104BD00001EBD171A0EB6100A1E025800EE0304631
:104BE0000FF07CF9074640460FF078F907EBD771D4
:104BF000491000EBD070A1EB60008BE065800BE00A
:104C000030460FF06BF9074640460FF067F9381A47
:104C100080E0258097E060802088318808442080EB
:104C20006088718808446080BDE8F08130460FF0EC
:104C300055F9054640460FF051F905EBD57149107D
:104C400000EBD070A1EB60007CE030460FF046F93D
:104C5000054640460FF042F9281A73E025805FE0D0
:104C600030460FF03BF9054640460FF037F9281A59
:104C700055E02580084618E030460FF02FF905462C
:104C800040460FF02BF905EBD571491000EBD070C1
:104C9000A1EB600007E030460FF020F905464046E2
:104CA0000FF01CF9281A208040460FF0DFF8404230
:104CB000B1E7258018E030460FF010F90546404670
:104CC0000FF00CF9014605EBD570401001EBD171E6
:104CD000A0EB610007E030460FF000F905464046C2
:104CE0000FF0FCF8281A208030460FF0BFF892E74A
:104CF00008460FF0F3F840420CE008460FF0EEF8DB
:104D000040420CE008460FF0E9F840421AE0304615
:104D10000FF0E4F8208071E730460FF0DFF82080D4
:104D200030460FF0A3F8054640460FF09FF805EB1C
:104D3000D571491000EBD070A1EB60006BE73046F5
:104D40000FF0CCF8208030460FF090F80546404632
:104D50000FF08CF8281A5EE770B5B1F90030B2F99F
:104D60000040A34200DC23460380B1F90250B2F9AF
:104D70000240A54200DD2C464480B1F90460B2F93E
:104D80000450AE4200DA35468580B1F90610B2F91A
:104D90000620914200DB1146C1800120AB4201DCBC
:104DA0008C4200DD002070BDF8B50D460446B0F918
:104DB0000000B1F900101646884247DBB4F9021032
:104DC000B5F90220914241DBB4F90410B5F9042091
:104DD00091423BDCB4F90610B5F90620914235DC6E
:104DE00096B3ADF800006088ADF80200324669461F
:104DF000284600F049F8002827D0A088ADF8000028
:104E00006088ADF8020032466946284600F03CF85A
:104E100000281AD02088ADF80000E088ADF8020024
:104E200032466946284600F02FF800280DD0A088A9
:104E3000ADF80000E088ADF8020032466946284629
:104E400000F022F8002800D00120F8BD0020F8BDB5
:104E5000B0F90020B1F904309A4213DCB0F9042013
:104E6000B1F900309A420DDBB0F90220B1F90630F9
:104E70009A4207DCB0F90600B1F90210884201DB62
:104E800001207047002070472DE9FC4114460E4672
:104E9000B1F90020B0F9001005468A423ADBB5F9B5
:104EA0000400824236DCB6F90270B5F9022097425E
:104EB00030DBB5F906309F422CDC002C75DD401A42
:104EC0009A1A401C521C00B212B200EBD07002EBD6
:104ED000D27240105210904200DB1046844200DD36
:104EE0000446ADF80010288800222044ADF80400E4
:104EF0006888ADF80200688831462044ADF80600A5
:104F00006846FFF7C1FF40B1BDF804002044ADF88A
:104F100004003FE00020BDE8FC81E8880022001B7F
:104F2000ADF80200E888ADF8060031466846FFF7A4
:104F3000ABFF28B1BDF804002044ADF8040011E037
:104F4000A8880022001BADF80000A888ADF8040076
:104F500031466846FFF798FF50B1BDF80000001BCE
:104F6000ADF80000BDF80200001BADF8020016E02D
:104F70006888ADF80200688800222044ADF8060079
:104F800031466846FFF780FF70B1BDF80000001B96
:104F9000ADF80000BDF806002044ADF8060031462B
:104FA00068461EF0B7FCB6E7FFE70120B3E710B58F
:104FB000B1F90040B2F900309C4200DA2346038088
:104FC000B1F90240B2F902309C4200DA2346438034
:104FD000B1F90440B2F904309C4200DD23468380DD
:104FE000B1F90610B2F90620914200DC1146C180E9
:104FF00010BD30B5034680881C885D88001BDC88A6
:10500000401C198000B2641B641C014624B25A8003
:1050100018460EF087FF2146BDE8304018460EF0D6
:105020007CBF0022002801DA01224042002901DA77
:105030004942921C884207D9C1EB011101EB4101A1
:10504000B1FBF0F3103205E0C0EB001000EB4000C4
:10505000B0FBF1F30020D9B216290BD92C2900D8C6
:105060000120292900D8401C252900D8401C2029CE
:105070000BD90BE0022900D30120062900D3401CE4
:105080000A2900D3401C0F2900D3401C1844D10624
:1050900001D5C0F15A0091074FEAC27105D509B197
:1050A000B43005E0C0F1B40002E009B1C0F5B4705D
:1050B00080B270472DE9FF4F87B01D46DDE91476B9
:1050C000DDF858908B46022E50D3002F4ED001F0C1
:1050D0001DFD804612F0B6FD00F11004D0F808A0C6
:1050E000D8F82410404601B188475A4604A80799C9
:1050F000FFF732FE002839D0BDF810002188401A91
:1051000001B2ADF81010BDF812006288801AADF837
:105110001200BDF814002288801A00B2ADF8140005
:10512000BDF816206388D21AADF8162095B198F80C
:105130000820D2070ED1401A401C01B2002007E01F
:105140002A5C802A01D9FF2200E000222A54401C58
:105150008842F5DBD8F8140058B1CDE90065029714
:1051600004AA51462046099B0AF0FEFC0BB0BDE89C
:10517000F08FB9F1000F0AD001A8009680E8A002D4
:1051800004AA51462046099B0AF088FAEEE7CDE9C9
:105190000065029704AA51462046099B0AF018FBB5
:1051A000E4E72DE9FF4F87B01D46DDE91476DDF811
:1051B00058A09146022E52D3002F50D0014605A888
:1051C000089AFFF7C9FD002849D001F09FFC8046EE
:1051D00012F038FD00F11004D0F808B0D8F824100F
:1051E000404601B18847BDF814002188401A01B239
:1051F000ADF81410BDF816006288801AADF81600DC
:10520000BDF818002288801A00B2ADF81800BDF869
:105210001A206388D21AADF81A2095B198F80820A0
:10522000D2070ED1401A401C01B2002007E02A5CD0
:10523000802A01D9FF2200E000222A54401C884223
:10524000F5DBD8F8140068B1CDF800900397CDE9EC
:10525000016505AA59462046089B23F0D5FF0BB0EF
:10526000BDE8F08FBAF1000F0BD002A805AA80E8C4
:10527000A004CDE9009659462046089B23F078FD0E
:10528000EDE7CDF800900397CDE9016505AA5946F1
:105290002046089B23F01CFEE1E70000D0F87821AF
:1052A000C2F309438B4202D204490A4002E0591A70
:1052B00061F31942C0F8782170470000FFFF00FC3D
:1052C0002DE9FC5F054623F071FB554C0190E86821
:1052D00060600021284621F0A9FF6068C16BA9B178
:1052E0001EF02EFD1EF0A4FC60684E4AD0F8781126
:1052F00011427DD0A34612F03AFD002867D0DBF8BA
:1053000004005D464169002961D108E04549D0F8B3
:105310007821C9430A40C0F87821BDE8FC9F12F00B
:1053200091FC04461EF006FEA0690028FCD16868C6
:10533000B0F90000400000F063FF8246A1682068D9
:105340008946814200D160688046686812F08EFC10
:1053500006460024AB462DE00A1992F85A213ABBC2
:1053600001EBC40131F95A2FB1F9025016FB0523A4
:1053700089885F00891A491C09B2490000910FE031
:1053800008EB07015046009A00F0FEFF09EB07000A
:105390005146009A00F0F8FF6D1C07EB46072DB24E
:1053A000DBF8040000EBC400B0F96000A842E7DAC3
:1053B000641CA4B2DBF80410D1F87821C2F30942CE
:1053C000A242C9D8BAF1000001D000F09FFFDBF87B
:1053D00004004FF480715C465A3001F0EFF86068C9
:1053E000202100F5AD7001F0E9F860680D4A00E099
:1053F0000FE0D0F87811D2431140C0F8781101982D
:1054000023F0CEFA63689D691DB1014618462268F3
:10541000A84700F0D3FEBDE8FC5F00F005B800002F
:10542000C80000200000FF0310B5044C20680028CD
:1054300003D01AF01DFA0020206010BD48010020A2
:105440001821014800F0BDBD200600202DE9FF5FB6
:105450000446DDE90E0613B9B0F5807F7ED0B6F9BB
:1054600000504FF0FF376D42454307EB25252DB225
:105470002580B6F902C0CCF1000C0CFB00FC07EB58
:105480002C273FB26780B6F900C0A1EB0C01414365
:105490004FF0020C0CEB212109B2A180B6F9028079
:1054A000A2EB080242430CEB222000B2E080002B6A
:1054B0007ED04FF00A0A93FBFAF5684200EB8000B9
:1054C00003EB400705F1010928B201F049FF009004
:1054D0000FFA89F001F044FF83465A3528B201F0F3
:1054E0003FFF804609F15A0000B201F039FF014642
:1054F000009AC7F10A0000FB02F300FB08F00BFB67
:10550000073301FB070193FBFAF291FBFAF04FEA34
:10551000601AB4F90010B4F902000AFB01FCCDF8DE
:105520000CC05511378805FB10C207EBA2220FFAF9
:1055300082F905FB01F2BB46029277880AFB002143
:1055400007EBA1210BB2B4F90410BE460AFB01FC23
:1055500005FB10C20BEBA22216B200E02FE005FB08
:1055600001F7CDE9007CB4F90680DDF80CC00AFB38
:10557000007005FB18C1DDF804C0009F05FB18C5CD
:10558000029A0AFB087C0AFB08220BEBA1210EEB16
:10559000AC270EEBA02009B20EEBA2220BEBA52547
:1055A0000FFA87FC00B212B22DB24F46494500E017
:1055B0000EE000DA0F46B54216DAA84615E00020E4
:1055C0002080491E6080A180521EE280BDE8FF9FBE
:1055D00032882A44228072883A4462803288114498
:1055E000A180718808444FE0B046474504DA4F4631
:1055F000494506DA0F4604E0B54201DA2F4600E0DD
:10560000374627804F46494500DD0F46B54201DD4C
:10561000A84600E0B046474503DD4D46494505DC58
:1056200001E0B54201DD294600E03146A1809A4201
:1056300001DA154600E01D46844501DA614600E0C6
:1056400001468D4205DA9A4201DA114606E0194612
:1056500004E0844501DA614600E0014661809A4237
:1056600001DD114600E01946844501DD654600E094
:105670000546A94205DD9A4201DD104604E01846C0
:1056800002E0844500DD6046E0809FE72DE9FE4FA3
:105690000446D0F800B0B0F90800E589081AB4F95A
:1056A0000A10511AD4E90932B5F5807F3CD0A5899A
:1056B000002DA56B05FB00F005FB01F54FEA60101E
:1056C0004FEA65113ED0256BE66A05FB00F706FB45
:1056D0001177464305FB016003EBA72902EBA020ED
:1056E00080460612B4F904004FEA2927B84248DD83
:1056F000002F46DBB4F90610B14242DD002E40DB3C
:1057000094F834104A073FD58A0704F114031DD4D6
:1057100000FB067045004FF0020A0BEB05015246F4
:10572000184600F0DDFE22E0256BE66A05FB00F777
:1057300006FB1177464305FB016003EBA70902EB6B
:10574000A000CDE703EB00095018C9E700FB067085
:1057500000EB40054FF0030A0BEB0501022218464F
:1057600000F0BEFEE81C584410F8010CA07594F837
:105770003400C0071ED01948A18A008880B2814237
:1057800018D10020BDE8FE8F32B204F11800236961
:10579000CDE90102002539B2AA468B4615F0FAFE82
:1057A0000090BDF80000A082DDE90102594615F025
:1057B00089FEDBE7E07C78B1A4F83C90A4F83E8059
:1057C000A4F84070A4F84260656484F848A02046BC
:1057D000BDE8FE4F00F004B80120D3E7E4F9020869
:1057E0002DE9F04F044690F83C10D0F8009090F866
:1057F0003E0087B04FF0FF36702907DAB4F9402039
:105800003546012A00D5002580310DE0902916DDAE
:10581000B4F94020B4F904300125521C9A4200DB4F
:105820000025A1F27F114942C9B28846702809DAE1
:10583000B4F94210012900D50026803010E000257F
:10584000FF21F2E790280DDDB4F94210B4F90620EB
:105850000126491C914200DB0026A0F27F10404245
:10586000C7B201E00026FF2760690090A07D059087
:10587000002083468246049094F83400400744D5C3
:1058800094F84810606C11FB05014944022201A8FC
:1058900000F032FEA08894F8481010FB01F0616C13
:1058A000022206FB0011494403A800F025FEA1884E
:1058B00094F8480011FB00F1626C06FB012210FB1A
:1058C00005901118022202A800F016FE94F8340088
:1058D000800761D594F84800626C10FB052300EB4B
:1058E00009010B4413F8013C0493A38813FB00F354
:1058F00006FB0322114411F801BC10FB050011182E
:1059000001EB090010F8010C45E0B4F84000B4F9CF
:105910004220284401B204F118008146236915F0A1
:1059200039FE0190B4F84200B4F94010304402B29C
:1059300054F8103F484615F02DFE0390608E236802
:10594000304402B2208E284401B2484615F022FEAF
:10595000029094F82400103C80071DD5B4F9422031
:1059600034F8400F284401B2484615F0ABFD0490CE
:105970006088B4F90010304402B2484615F0A2FD28
:1059800083466088304402B234F84009284401B2AA
:10599000484615F097FD824694F834004246454645
:1059A000800735D5059810FB08F30499C8F1FF006E
:1059B00011FB0031C1F307211BFB08F61AFB006045
:1059C000C0F3072011FB07F3C7F1FF0610FB0633F6
:1059D0001B0AA375022907D8022803D8002007B0A4
:1059E000BDE8F08F002702E0022800D8FF270598C5
:1059F000022800D800220498022800D8FF22BBF118
:105A0000020F00D80025BAF1020F03D8FF2501E0EC
:105A1000FF20A075EAB1FF2A04D0DDE9000110F0F3
:105A20009FFF0090BDB1FF2D17D0DDE902102A467F
:105A300010F096FF049097B1FF2F05D001463A462B
:105A4000009810F08DFF0090BDF80000A0820120AA
:105A5000C5E70198E5E70298ECE70398EAE7BDF8A7
:105A60001000F3E72DE9F0470446B0F908000A27D3
:105A700000026062B4F90A000002A062B4F90C10DE
:105A800091FBF7F5684200EB800001EB40066842AD
:105A900005F1010800B201F063FC8246E84300B260
:105AA00001F05EFC8146C5F15A0000B201F058FCDD
:105AB0000546C8F15A0000B201F052FCC6F10A01D5
:105AC00001FB0AF3024609FB0630694390FBF7F03D
:105AD00002FB061191FBF7F14011E06248112063CF
